:020000040800F2
:1000000000000220110A00080D0A0008DD4A00085D
:100010000D0A00080D0A00080D0A00080000000083
:100020000000000000000000000000000D0A0008B1
:100030000D0A0008000000000D0A0008614A0008CF
:100040000D0A00080D0A00080D0A00080D0A000834
:100050000D0A00080D0A00080D0A00080D0A000824
:100060000D0A00080D0A00080D0A0008694600087C
:10007000754600080D0A0008814600088D460008F4
:1000800049E00008953B00080D0A00080D0A000829
:100090000D0A00080D0A00080D0A00080D0A0008E4
:1000A0000D0A00080D0A00080D0A00080D0A0008D4
:1000B00009D4000815D4000821D40008C93B000861
:1000C0000D0A0008D53B00080D0A000879CC00088D
:1000D00085CC00087DDE0008ADDE0008E1DE00080A
:1000E0000D0A00080D0A0008000000000D0A0008B3
:1000F0000D0A00080D0A00080D0A00080D0A000884
:100100000D0A00080D0A00082DD4000891CC000843
:1001100015DF000849DF00080D0A00080D0A000875
:100120000D0A00080D0A0008B5CC0008E9CC00084B
:100130007DE000080D0A00080D0A00080D0A0008FD
:1001400000000000000000000000000000000000AF
:100150000D0A00080D0A00080D0A00087DDF0008DE
:10016000E13B00080D0A0008714A0008954A0008A2
:100170000D0A0008B94A00080D0A00080D0A000817
:100180000D0A00080D0A0008B1DF0008E1DF0008D1
:100190009DCC0008A9CC00080D0A00080D0A000833
:1001A0000D0A00080D0A00080D0A00080D0A0008D3
:1001B000894300080D0A00080D0A00080D0A00080E
:1001C0000D0A00080D0A00080D0A00080D0A0008B3
:1001D0000D0A00080D0A00080D0A00080D0A0008A3
:1001E0000D0A00080D0A00080D0A00080D0A000893
:1001F0000D0A00080D0A00080D0A00080D0A000883
:100200000D0A00080D0A00080D0A00080D0A000872
:100210000D0A00080D0A00080D0A00080D0A000862
:100220000D0A00080D0A00080D0A00080000000071
:100230000D0A00080D0A0008000000000D0A000861
:100240000D0A00080D0A00080D0A00080D0A000832
:100250000D0A00080D0A00080D0A00080D0A000822
:100260000D0A00080D0A00080D0A00080D0A000812
:100270000D0A00080D0A000815E000080000000043
:100280000D0A00080D0A00080D0A00080000000011
:08029000000000000D0A000847
:1002A00010B5054C237833B9044B13B10448AFF3B0
:1002B00000800123237010BDE8030024000000002B
:1002C000583A010808B5034B1BB103490348AFF383
:1002D000008008BD00000000EC030024583A01082B
:1002E00001F0FF01102A2BDB10F0070F08D010F8E7
:1002F000013B013A8B422DD010F0070F42B3F6D1EB
:10030000F0B441EA012141EA014122F007047FF003
:1003100000070023F0E80256083C85EA010586EA5A
:10032000010685FA47F5A3FA87F586FA47F6A5FA96
:1003300087F68EB9EED1F0BC01F0FF0102F00702A2
:1003400032B110F8013B013A83EA010313B1F8D14D
:100350000020704701387047002D06BF354603382E
:10036000073815F0010F07D1013015F4807F02BF67
:10037000013015F4C03F0130F0BC0138704700BFB8
:10038000034613F8012B002AFBD1181A01387047D5
:1003900081F0004102E000BF83F0004330B54FEA36
:1003A00041044FEA430594EA050F08BF90EA020FA3
:1003B0001FBF54EA000C55EA020C7FEA645C7FEA36
:1003C000655C00F0E2804FEA5454D4EB5555B8BF59
:1003D0006D420CDD2C4480EA020281EA030382EACA
:1003E000000083EA010180EA020281EA0303362D5C
:1003F00088BF30BD11F0004F4FEA01314FF4801C2F
:100400004CEA113102D0404261EB410113F0004F40
:100410004FEA03334CEA133302D0524263EB4303F7
:1004200094EA050F00F0A780A4F10104D5F1200E95
:100430000DDB02FA0EFC22FA05F2801841F10001F0
:1004400003FA0EF2801843FA05F359410EE0A5F1C4
:1004500020050EF1200E012A03FA0EFC28BF4CF0F5
:10046000020C43FA05F3C01851EBE37101F00045AB
:1004700007D54FF0000EDCF1000C7EEB00006EEBB8
:100480000101B1F5801F1BD3B1F5001F0CD3490842
:100490005FEA30004FEA3C0C04F101044FEA445299
:1004A00012F5800F80F09A80BCF1004F08BF5FEA20
:1004B000500C50F1000041EB045141EA050130BD00
:1004C0005FEA4C0C404141EB0101013C28BFB1F512
:1004D000801FE9D291F0000F04BF01460020B1FA5D
:1004E00081F308BF2033A3F10B03B3F120020CDA30
:1004F0000C3208DD02F1140CC2F10C0201FA0CF00E
:1005000021FA02F10CE002F11402D8BFC2F1200C72
:1005100001FA02F120FA0CFCDCBF41EA0C01904028
:10052000E41AA2BF01EB0451294330BD6FEA040471
:100530001F3C1CDA0C340EDC04F11404C4F120025C
:1005400020FA04F001FA02F340EA030021FA04F36E
:1005500045EA030130BDC4F10C04C4F1200220FAC5
:1005600002F001FA04F340EA0300294630BD21FA03
:1005700004F0294630BD94F0000F83F4801306BFC9
:1005800081F480110134013D4EE77FEA645C18BFBD
:100590007FEA655C29D094EA050F08BF90EA020F54
:1005A00005D054EA000C04BF1946104630BD91EA4C
:1005B000030F1EBF0021002030BD5FEA545C05D14F
:1005C0004000494128BF41F0004130BD14F580048E
:1005D0003CBF01F5801130BD01F0004545F0FE4102
:1005E00041F470014FF0000030BD7FEA645C1ABF37
:1005F000194610467FEA655C1CBF0B46024650EA6E
:10060000013406BF52EA033591EA030F41F4002199
:1006100030BD00BF90F0000F04BF0021704730B51F
:100620004FF4806404F132044FF000054FF00001F4
:1006300050E700BF90F0000F04BF0021704730B5B5
:100640004FF4806404F1320410F0004548BF40428A
:100650004FF000013EE700BF42004FEAE2014FEADF
:1006600031014FEA02701FBF12F07F4393F07F4FBA
:1006700081F06051704732F07F4208BF704793F0BD
:100680007F4F04BF41F40021704730B54FF46074D0
:1006900001F0004521F000411CE700BF50EA0102D3
:1006A00008BF704730B54FF000050AE050EA01027C
:1006B00008BF704730B511F0004502D5404261EBEC
:1006C00041014FF4806404F132045FEA915C3FF42D
:1006D000D8AE4FF003025FEADC0C18BF03325FEACA
:1006E000DC0C18BF033202EBDC02C2F1200300FA7B
:1006F00003FC20FA02F001FA03FE40EA0E0021FAA0
:1007000002F11444BDE600BF53B94AB9002908BF3D
:1007100000281CBF4FF0FF314FF0FF3000F074B9DC
:10072000ADF1080C6DE904CE00F006F8DDF804E048
:10073000DDE9022304B070472DE9F047089D044627
:100740008E46002B4DD18A42944669D9B2FA82F284
:1007500052B101FA02F3C2F1200120FA01F10CFAC0
:1007600002FC41EA030E94404FEA1C48210CBEFBF8
:10077000F8F61FFA8CF708FB16E341EA034306FB81
:1007800007F199420AD91CEB030306F1FF3080F010
:100790001F81994240F21C81023E63445B1AA4B25D
:1007A000B3FBF8F008FB103344EA034400FB07F7FF
:1007B000A7420AD91CEB040400F1FF3380F00A8140
:1007C000A74240F207816444023840EA0640E41B35
:1007D00000261DB1D4400023C5E900433146BDE8E1
:1007E000F0878B4209D9002D00F0EF800026C5E983
:1007F000000130463146BDE8F087B3FA83F6002E9B
:100800004AD18B4202D3824200F2F980841A61EB12
:10081000030301209E46002DE0D0C5E9004EDDE730
:1008200002B9FFDEB2FA82F2002A40F09280A1EB18
:100830000C014FEA1C471FFA8CFE0126200CB1FB6D
:10084000F7F307FB131140EA01410EFB03F0884266
:1008500008D91CEB010103F1FF3802D2884200F2F3
:10086000CB804346091AA4B2B1FBF7F007FB101185
:1008700044EA01440EFB00FEA64508D91CEB040423
:1008800000F1FF3102D2A64500F2BB800846A4EB7E
:100890000E0440EA03409CE7C6F12007B34022FA69
:1008A00007FC4CEA030C20FA07F401FA06F31C4398
:1008B000F9404FEA1C4900FA06F3B1FBF9F8200CA5
:1008C0001FFA8CFE09FB181140EA014108FB0EF0EB
:1008D000884202FA06F20BD91CEB010108F1FF3A3B
:1008E00080F08880884240F28580A8F10208614447
:1008F000091AA4B2B1FBF9F009FB101144EA014155
:1009000000FB0EFE8E4508D91CEB010100F1FF34FF
:100910006CD28E456AD90238614440EA0840A0FB97
:100920000294A1EB0E01A142C846A64656D353D06D
:100930005DB1B3EB080261EB0E0101FA07F722FA91
:1009400006F3F1401F43C5E9007100263146BDE8BA
:10095000F087C2F12003D8400CFA02FC21FA03F31D
:10096000914001434FEA1C471FFA8CFEB3FBF7F09E
:1009700007FB10360B0C43EA064300FB0EF69E42C3
:1009800004FA02F408D91CEB030300F1FF382FD25C
:100990009E422DD9023863449B1B89B2B3FBF7F604
:1009A00007FB163341EA034106FB0EF38B4208D9DD
:1009B0001CEB010106F1FF3816D28B4214D9023E1E
:1009C0006144C91A46EA004638E72E46284605E73C
:1009D0000646E3E61846F8E64B45A9D2B9EB02080D
:1009E00064EB0C0E0138A3E74646EAE7204694E79D
:1009F0004046D1E7D0467BE7023B614432E73046D0
:100A000009E76444023842E7704700BFFEE700BFD1
:100A10000B480C4A904203D0121A0B4911F01CF9F2
:100A20000A480B4A904203D0121A002111F03CF9F7
:100A300004F07EFA11F0CCF800F0AEFDFEE700BF46
:100A400000000024E8030024883A0108E803002499
:100A500048390024704700BF704700BF704700BF8F
:100A6000704700BF704700BFF0B500F1080783B0C2
:100A7000076029B3044608460E46FFF781FC0F289D
:100A8000054601900DD8012808D133782372019BC7
:100A9000002122686360D15403B0F0BD0028F6D075
:100AA00008E0002201A9204610F0D0FD019B074676
:100AB0002060A3602A463146384611F0CDF8E6E7BB
:100AC000014810F029FD00BF543101082DE9F04321
:100AD00087B0044698460F460E9D00F110019146DE
:100AE0000095C368426804A810F068FD9DF81030B6
:100AF000B3B92668C8F8289056F8273006EB870265
:100B0000002B49D01B68C8F8003056F82730C3F8CE
:100B10000080E36840460133E36007B0BDE8F0833E
:100B2000059F012F5FD0B7F1005F62D2BA00104677
:100B3000039210F0DDFC039A0021064611F0B4F890
:100B400004F1180CA2680020A06082B1154612685A
:100B5000A96AB1FBF7F307FB131156F821307BB3F9
:100B60001B682B6056F821301D60002AEED1D4E9B5
:100B70000001604502D0890010F083FCB9FBF7F159
:100B8000C4E9006707FB1197C8F8289056F827308A
:100B900006EB8702002BB5D1A368C8F80030C4F873
:100BA0000880D8F800303BB19B6A6168B3FBF1F074
:100BB00001FB103346F8238004F108031360A8E713
:100BC000A3682B60234643F8085F46F821302B6862
:100BD0002BB146F820500846002AB7D1C7E708468F
:100BE000002AB3D1C3E72646002346F8183FB4468F
:100BF000A8E710F08EFC00BFF8B5D0E90056074614
:100C0000B5420FD005F1080454F8080C844204F1F1
:100C1000180403D0A968013110F033FC1835AE4236
:100C2000F2D13E6826B1B9683046891B10F029FC24
:100C30003846F8BD70B585680646BDB12C462D68AE
:100C4000E36918461BB1616AC91A10F01AFC6068A2
:100C500004F10C03984203D0E168013110F011FC5B
:100C60002C21204610F00DFC002DE7D172680021E8
:100C70003068920011F018F8306806F1180300226D
:100C800071689842C6E9022202D0890010F0F9FB8F
:100C9000304670BD2DE9F0410C4684B00021054678
:100CA0002046D4E90032012A93F8008028BF0122AF
:100CB00010F070FD2346676853F8082B7E1C9A429B
:100CC00014BFA3680F239E421ED802F8078000229B
:100CD000236866609A5505F1080366682B602468EE
:100CE000F44200D05CB30F2E039617D8012E08D122
:100CF00022782A72002228466E609A5504B0BDE818
:100D0000F081002EF6D012E0002301223946204661
:100D100000921A4610F002FD2268D6E7002203A9CD
:100D2000284610F093FC039A03462860AA603246D6
:100D30001846214610F090FF039E2B68DAE7014821
:100D400010F0EAFB543101082DE9F04FCDB0074611
:100D5000012312A806A90CAA0DF11009C9F8300048
:100D60004420C9F800104321A9F8380018A8A9F8B0
:100D7000081046F24421C9F8480046F24520ADF873
:100D800030100221ADF860001EA8C9F8182000221A
:100D9000C9F860004520C9F81C100DF1280AA9F80F
:100DA000680024A8C9F84C10C9F87800462089F8D2
:100DB0002220A9F880002AA889F85220C9F89000BA
:100DC00046F24720C9F89410ADF8A80030A889F879
:100DD0009A20C9F8A8004720C9F8C410A9F8B000A3
:100DE00036A889F8CA20C9F8C00046F24120C9F8DF
:100DF0000430ADF8D8003CA8C9F83430C9F86430E4
:100E0000C9F87C30C9F8AC30C9E93603C9F80C31EF
:100E10004223C9F8F41048A9A9F8103141234FF42E
:100E2000907089F8FA20A9F8E03042ABC9F80811AF
:100E3000C9F8F03046F24223ADF8083110F058FB03
:100E4000804600F1180400F59C7B0BE01B7804F849
:100E5000103C44F8145C183400230AF1180A5C456D
:100E6000435529D0A4F11000A4F11802264644F8F5
:100E7000180C5AE90635EB4202D0002B00F09280A4
:100E80000F2D039504D8012DE0D0002DE1D00BE00B
:100E9000104603A90022019310F0D8FB039A019B8E
:100EA00044F8180C44F8102C2A46194610F0D4FEC9
:100EB000039D54F8180CCCE74CAC183C234653F86F
:100EC000080B984203D0A168013110F0DAFA4C45C2
:100ED000F3D1374BD3E90041364B0C1B9C4264D80D
:100EE0000023C7E90033BB60002C57D0204610F028
:100EF000FFFA044403463860BC6003F1080018336D
:100F000000229C4203F8102C43E90602F5D1DFF8D9
:100F1000B4A07B60DAF8003033B3A6EB0809264BA7
:100F20000024DFF8A4B04FEAE909254603FB09F9DC
:100F30003B6804EB4400B5FBF9F109FB115103EBED
:100F4000C00001EB410108EBC10110F0C1FBDBF86F
:100F50000020DAF80030125D0134572A0CBF02225B
:100F60000122A3421544E3D846450ED008F10804F7
:100F7000454654F8080CA04203D0A968013110F08E
:100F800080FA18351834AE42F3D140464FF49071D0
:100F900010F077FA38464DB0BDE8F08F23463C603C
:100FA000BC60B4E7054810F0B7FA054810F0B7FA8E
:100FB00038040024F8FFFF7FABAAAAAA5431010825
:100FC000803101080400002404040024274B284A2F
:100FD0002DE9F041D3E90035ED1A954243D80023BD
:100FE0000646C0E900338360BDB3284610F080FA9E
:100FF00042193060B26000F10803183000248242C8
:1010000000F8104C40E90634F5D1726015B3194F61
:10101000254610F025FFDFF8648002463068013570
:1010200020441834D7E900135B1ADB1008FB03F3E4
:10103000B2FBF3FC0CFB132202EB420201EBC201F8
:1010400010F046FBD6E900239B1ADB1008FB03F3E4
:101050009D42DEDB3046BDE8F0810560C0E9015508
:101060003046BDE8F081044810F059FA44040024E9
:10107000F8FFFF7F3804002480310108ABAAAAAA38
:101080002DE9F04FA44C8FB0204602F017FBA34887
:1010900002F014FBA24802F011FB237913B1A37AEA
:1010A0007F2B0FD09D4B1A791AB19B7A7F2B00F0C2
:1010B000DA809B4B1A7912B19B7A7F2B08D00FB044
:1010C000BDE8F08F974A137883F001031370E9E7C6
:1010D000954D04AED5E900740296E74202D0002F88
:1010E00000F091810F2C089400F26081012C40F0F7
:1010F00055813B7832460DF120090DF108088DF835
:101100001030002303944846414613550AACFFF7BC
:10111000C1FD089B2868A34200F05B81834A2B60D5
:101120009042099B6B6000F062810A9AAB68AA60EA
:10113000002800F05E8108900A9300230993037051
:101140000898A04203D00A99013110F09AF9029848
:10115000B04203D00499013110F093F9744A484623
:10116000744F1368072B14BF013300231360FFF77C
:10117000EBFD089A0023D7F808A00893D7E900866A
:101180003A60099AB04509937A600A9A0A93BA605C
:101190000ED008F10804454654F8080C844203D0E8
:1011A000A968013110F06DF918351834AE42F3D149
:1011B000B8F1000F04D0AAEB0801404610F061F925
:1011C000DDE90856B5420ED005F1080454F8080CC4
:1011D000844203D0A968013110F053F9183518344E
:1011E000AE42F3D1089E26B10A993046891B10F011
:1011F00048F9D7E9006BBBEB060A00F0CC804E4BF8
:101200009A4500F20381504610F072F90190D7E937
:10121000006B019BB3459A4400F0948003F11804DD
:101220000BE03A7804F8102C1836002244F8145CCD
:1012300018345E45425500F08780A4F11000A4F1F7
:101240001802A04644F8180CD6E90075EF4202D007
:10125000002F00F0D8800F2D08954BD8012DE0D03D
:10126000002DE1D050E00024344B08A81C60FFF7AB
:10127000ADFE334B089AD3F808800894D3E9007682
:101280001A60099AB74209945A600A9A0A949A60B5
:101290000ED007F108043D4654F8080CA04203D0D4
:1012A000A968013110F0EDF818351834AE42F3D1C9
:1012B00027B1A8EB0701384610F0E3F8DDE908563E
:1012C000B5420ED005F1080454F8080CA04203D032
:1012D000A968013110F0D5F818351834AE42F3D1B1
:1012E000089E002E3FF4E5AE0A993046891B10F0A7
:1012F000C8F8DEE610464946002210F0A7F9089A21
:1013000044F8180C44F8102C2A46394610F0A4FC76
:10131000089D54F8180C87E750040024D8040024D2
:10132000E804002460040024040400240C040024C5
:10133000A404002438040024F8FFFF7F6404002480
:1013400044040024DDF80480344B019A1F685E6871
:101350001A60B742C3F80480D3F80880C3F808A025
:101360000ED007F108043D4654F8080CA04203D003
:10137000A968013110F085F818351834AE42F3D160
:10138000002F3FF49CAEA8EB070138460FB0BDE834
:10139000F04F10F076B8CDF804A03AE7002C37D122
:1013A00032460DF120090DF10808AAE60DF12009D9
:1013B0000DF1080800224946404610F047F9089B05
:1013C000029004932246394610F046FC089C029A8B
:1013D00097E6099A32B1012A0FD0214610F03CFC61
:1013E000099A286800236A6083540898A5E60A9B36
:1013F000AB6008940AAC20469FE69DF82830037045
:10140000099A2868EEE7064810F086F810F081F88F
:1014100030460DF120090DF10808D3E744040024FB
:101420005431010838B30138F8B50C460026124D86
:1014300047082DED028B114808340FF027FD1048A6
:10144000B0EE408A0FF022FD0B4885ED020A0FF046
:10145000DBFF094885ED018A85ED080A0FF0F2FDF2
:10146000B74204ED020A06F1010604ED010AE2D1D9
:10147000BDEC028BF8BD7047A804002430050024A1
:10148000F804002408B5064800F012FF00210448C3
:1014900000F0B2FF04210248BDE8084000F028BF78
:1014A0006804002410B5064C20460FF0D7FC054B0D
:1014B0000549064AA3616361A160E26010BD00BFF7
:1014C000F80400240000C8430AD7233CCDCC4C3D8F
:1014D00010B5064C20460FF0C1FC4FF07E53044976
:1014E0000022E360A160A361626110BD30050024A9
:1014F0000AD7233C00B51C202DED028BB0EE408AAC
:1015000087B000F0D7FEDFED157A0346144888EE69
:10151000270AADF80C3003998DED010A02F0B4F8FA
:101520001B2000F0C7FE03469DED010AADF8103008
:1015300004990C4802F0A8F8192000F0BBFE0346FD
:101540009DED010AADF814300748059907B0BDECD0
:10155000028B5DF804EB02F097B800BF0000404238
:1015600050040024D8040024E8040024074BF0EEC3
:10157000400A9FED077AF1EE007AD3ED006A054844
:1015800086EE870A20EE270A0FF04ABF08000024E3
:10159000000070426805002410B52DED028BFFF7A6
:1015A00071FF214800F0A0FEF7EE008AB0EE408AFD
:1015B0001E4C1F494FF07C5300229FED1E0AC8EEBF
:1015C000887A204621616360E360E26184ED058AE8
:1015D00084ED020AC4ED067A0FF016FFF0EE407AB1
:1015E00040F201120123B0EE480AA285C4ED087A48
:1015F0002370C4ED018AFFF755FFB0EE480AFFF7EC
:1016000067FFB0EE480AFFF775FFB0EE480AFFF734
:10161000ADFF002010F0B6FC10F0F4FB06490248C4
:1016200000F05EFEFEE700BF68040024A80400246A
:10163000DB0F49400000C842491B0008F0B583B0E9
:10164000002302AC04E9060004461148B0EBC20FC7
:10165000A360C4E9003318D3D6007EB130460F46EC
:101660000FF046FF05463946324635442060A560F6
:1016700010F0F2FA2046656003B0F0BD3546204612
:101680002660A660656003B0F0BD02480FF047FF1A
:10169000F8FFFF7F803101082DE9F041044600F199
:1016A000080782B00846276088461646FEF768FE9F
:1016B0000F28054601902FD8012828D198F800302E
:1016C0002372002365607B55D6E90025C4E9063303
:1016D000AD1A23621ED01A4B9D422ED828460FF019
:1016E00007FF03461D44C4E906332562D6E900100E
:1016F0008142A0EB010504D018462A4610F0BAFA40
:1017000003462B442046E36102B0BDE8F081002887
:10171000D7D00AE02B46E5E7002201A920460FF0CA
:1017200095FF019B07462060A3602A463846414644
:1017300010F092FA019D2768C3E70FF0EAFE00BFA0
:10174000F8FFFF7F2DE9F041044600F1080782B061
:101750000846276088461646FEF712FE0F28054603
:1017600001902FD8012828D198F800302372002347
:1017700065607B55D6E90025C4E90633AD1A2362BE
:101780001ED01A4B9D422ED828460FF0B1FE0346BC
:101790001D44C4E906332562D6E900108142A0EB5E
:1017A000010504D018462A4610F064FA03462B447B
:1017B0002046E36102B0BDE8F0810028D7D00AE0FE
:1017C0002B46E5E7002201A920460FF03FFF019BD1
:1017D00007462060A3602A463846414610F03CFA8E
:1017E000019D2768C3E70FF094FE00BFF8FFFF7F5D
:1017F0002DE9F047D1E90024002382B0A41A0D4658
:1018000080468360C0E9003349D0284B9C424BD8C6
:1018100020460FF06DFE82465444C8E900AAC8F87D
:101820000840D5E90069B14533D00AF118040AE04F
:101830003B7804F8103C1836002344F8145C183444
:101840004E45435525D0A4F110007568A4F1180346
:10185000A24644F8180C3768EF4200D00FB30F2DA2
:10186000019504D8012DE3D0002DE4D009E01846FD
:10187000002201A90FF0EAFE019B44F8180C44F87D
:10188000103C2A46394610F0E7F9019D54F8180C2F
:10189000D1E74046C8F804A002B0BDE8F087A246F0
:1018A000BAE703480FF038FE0FF033FEF8FFFF7F72
:1018B0005431010810B50446006818B1A168091A2E
:1018C0000FF0DFFD204610BD2DE9F0479946036873
:1018D00053F8216006B33568074688469246AC6ADD
:1018E0000BE02C682E462546CCB1A46A7B68B4FB7D
:1018F000F3FC03FB1C4CE04515D14C45F1D1DAF863
:101900000420AB689A42ECD132B16968DAF8000081
:1019100010F092F90028E4D13046BDE8F087264661
:101920003046BDE8F08700263046BDE8F08700BFAE
:101930002DE9F0430C46074685B02D4A49682068DA
:101940000FF0A2FD7B6805462246B0FBF3F803FBCF
:101950001808034638464146FFF7B6FF28B100682D
:1019600018B11C3005B0BDE8F0832C200FF0C0FD8D
:10197000002203460646D4E9009443F80C2B19EBE9
:10198000040F436002D0B9F1000F2DD00F2C039447
:1019900019D8012C14D199F8002032732A46002559
:1019A000B46041461D5501243846334600947562A3
:1019B000C6E90755FFF78AF81C3005B0BDE8F0838B
:1019C000002CEBD008E0002203A9301D0FF03EFEF2
:1019D000039A03467060F26022461846494610F0AA
:1019E0003BF9039C7368D9E702480FF095FD00BFEF
:1019F00007690FC7543101082DE9F041394D88B00E
:101A0000394A2B6804AE126803EB4303029602EBDB
:101A1000C30152F833704C68E74201D0002F5AD00E
:101A20000F2C019446D8012C32D13A7833460DF16F
:101A300008088DF810200022039441462B481A55BF
:101A40002B68072B29D0FFF773FF0368284A93ED13
:101A50000A7BB7EEC77B82ED067A82ED057A01211B
:101A60002B68244882F834100B44234A80F8341041
:101A70001268029893FBF2F1B04202FB11332B6023
:101A800003D0049901310FF0FCFC08B0BDE8F081EF
:101A900024BB33460DF10808CDE7FFF749FF036883
:101AA000134A93ED0C7BB7EEC77B82ED067A82ED8D
:101AB000057AD4E70DF10808002201A940460FF08D
:101AC000C5FD019B029004932246394610F0C4F8EC
:101AD000DDE90143AFE709480FF01EFD30460DF187
:101AE0000808F1E764040024440400241C040024D2
:101AF000F8040024300500240400002454310108B7
:101B00000F4B10B51C787CB968B1431E01F1080277
:101B10005B0802EBC30208310023914241F8083C04
:101B200041F8043CF7D110BDFFF77CFC05480FF0ED
:101B300089FC0028F7D0BDE81040FFF75DBF00BF6B
:101B4000600400246805002400B583B00191009270
:101B5000FFF796FADDE9000103B05DF804EBFFF74B
:101B6000CFBF00BF2DE9F04F9246521A0F46614990
:101B7000921000F118050026814602FB01F187B0A2
:101B80000560994238BF19464FF07E530361012327
:101B9000C0E902664360C0E9056610300FF0C2FC80
:101BA000D9F80430834213D20128044600F099800A
:101BB000B0F1005F80F09B808200104603920FF02E
:101BC00097FC039A3146054610F06EF8C9E90054B7
:101BD00057456BD007F1240505E00368BBB12437F6
:101BE0002435BA4562D0444A55E909010FF04CFC4E
:101BF000D9F8041006463A4648463346B6FBF1F893
:101C000001FB18684146FFF75FFE0028E5D12C2054
:101C10000FF06EFC55F824BC55F8203C0446002219
:101C20001BEB030F40F80C2B606002D0BBF1000FE0
:101C30005AD00F2B059343D8012B3ED19BF800209F
:101C400022730022A360C254626255E90310C4E902
:101C50000722421A2ED0294B9A4248D810460392A6
:101C60000FF046FC55F80C1C034655F8080C039A77
:101C7000A0EB010B1A4481426262C4E9073304D02D
:101C800018465A460FF0F6FF03464FF0010E9B44EC
:101C900024372346CDF800E0324641464846C4F892
:101CA00020B02435FEF712FFBA459CD1484607B054
:101CB000BDE8F08F93461346DCE7002BC1D009E066
:101CC000002205A9201D03930FF0C0FC059A039B79
:101CD0006060E2601A4659460FF0BEFF059B6068DF
:101CE000AFE7C9F8186071E705480FF015FC0FF071
:101CF00010FC00BF398EE33807690FC7F8FFFF7F7C
:101D0000543101082DE9F04FC2484FF00009ADF2FF
:101D10002C6DC14AC1490924C0F800900DF58668B0
:101D2000C0F814900DF58F67C0F82090FAAD0FF051
:101D3000A3FBB94ABA490826BA480DF5367A0FF01E
:101D40009BFBB54AB849B9480FF096FBB24AB64971
:101D5000B7480FF091FBB04AB649B7480FF08CFB7B
:101D6000AD4AB449B5480FF087FBAB4AB149B44816
:101D70000FF082FBA84AB349B3480FF07DFBB3498B
:101D8000B348FEF771FEA44AB249B1480FF074FBA4
:101D90004822B14940460FF05FFF30AA16AB53A866
:101DA000CDE9308406CAFFF749FC53AAAB4938464F
:101DB000FFF772FC4822AA4928460FF04DFF2EAAD1
:101DC00015AB50A8CDE92E54E8AD06CAFFF736FC96
:101DD00050AAA4490DF29C40FFF7B4FC4822A24946
:101DE00028460FF039FF2CAA14AB4DA8CDE92C548E
:101DF000D6AD06CAFFF722FC4DAA9C490DF59860A6
:101E0000FFF74AFC48229A4928460FF025FF2AAAE4
:101E100013AB4AA8CDE92A5406CAFFF70FFC4AAA19
:101E200094490DF2E440FFF78DFC934C0DF5467E8E
:101E30000DF1A00C75460FCC0FC50FCC0FC50FCC04
:101E40000FC594E80F0085E80F00CDE928E612AB36
:101E500047A855469CE80600FFF7F0FB47AA8749CC
:101E60000DF5A160FFF718FC04F1100C0DF1980EB0
:101E7000BCE80F000FC5BCE80F000FC5BCE80F00A1
:101E80000FC59CE80F0085E80F0011AB44A8CDE911
:101E900026A69EE80600FFF7D1FB44AA78490DF27A
:101EA0002C50FFF7F9FB0DF5267A04F1500C0DF1DB
:101EB000900E5546BCE80F000FC5BCE80F000FC5DB
:101EC000BCE80F000FC59CE80F0085E80F0010ABC1
:101ED00041A8CDE924A69EE80600FFF7AFFB41AA82
:101EE00068490DF5AA60FFF72DFC0DF5167A04F18F
:101EF000900C0DF1880E5546BCE80F000FC5BCE8EC
:101F00000F000FC5BCE80F000FC59CE80F0085E867
:101F10000F000FAB3EA8CDE922A69EE80600FFF712
:101F20008DFB3EAA58490DF27450FFF7B5FB0DF535
:101F3000067A04F1D00C0DF1800E5546BCE80F0076
:101F40000FC5BCE80F000FC5BCE80F000FC59CE82B
:101F50000F0085E80F000EAB3BA8CDE920A69EE858
:101F60000600FFF76BFB3BAA48490DF5B360FFF78E
:101F7000E9FB0DF5EC7A04F5887C0DF1780E5546F9
:101F8000BCE80F000FC5BCE80F000FC5BCE80F0090
:101F90000FC59CE80F0085E80F000DAB38A8CDE910
:101FA0001EA69EE80600FFF749FB38AA38490DF245
:101FB000BC50FFF771FB0DF5CC7A04F5A87C0DF150
:101FC000700E554604F5C874BCE80F000FC5BCE898
:101FD0000F000FC5BCE80F000FC59CE80F0085E897
:101FE0000F000CAB35A8CDE91CA69EE80600FFF754
:101FF00025FB35AA27490DF5BC60FFF7A3FB0DF5BE
:10200000AC7E0DF1680C75460FCC0FC50FCC0FC51B
:102010000FCC41E06804002400000024590A0008A5
:10202000610A0008A80400245D0A000830050024A5
:10203000F8040024550A000850040024D8040024A1
:10204000E8040024650A000868050024B43101088A
:1020500004040024BF170108002E0108BC31010848
:10206000482E0108C0310108902E0108C431010832
:10207000D82E0108C8310108202F0108CC310108F1
:10208000D0310108D4310108D8310108DC31010810
:10209000E0310108E43101080FC594E80F0085E83C
:1020A0000F00CDE91AE60BAB32A80DF5C5649CE82C
:1020B0000600FFF7C3FA32AA6E490DF20460FFF77B
:1020C000EBFA08AA4B463946059217AA6A480492C9
:1020D00009AA039218AA029219AA01920AAA0092C6
:1020E0000DF5C562FFF73EFD243C04F118063046AD
:1020F000FFF7E0FB20460FF0CBFABC42F4D132A848
:10210000DFF89CB1FFF7D6FB35A8FFF7D3FB38A863
:10211000FFF7D0FB3BA8FFF7CDFB3EA8FFF7CAFBBC
:1021200041A8FFF7C7FB44A8FFF7C4FB47A8FFF788
:10213000C1FB4AA8FFF7BEFB4DA8FFF7BBFB50A8A9
:10214000FFF7B8FB53A8FFF7B5FB4C4A4C494A4888
:102150000FF092F94B493846FEF786FC4A49304663
:10216000FEF782FC49490DF59560FEF77DFC0DF503
:1021700098604749FEF778FC46490DF59B60FEF7ED
:1021800073FC45490DF59E60FEF76EFC39490DF56F
:10219000A160FEF769FC3B490DF5A460FEF764FC05
:1021A0000023C020CBF80830CBE900330FF0A0F9B2
:1021B00000F1C00300F1180400F1D809CBF80000C9
:1021C000CBF808300AE01B7804F8103C44F8145CA3
:1021D000183400231836A14543552BD0A4F1100024
:1021E000A4F11802A24644F8180C56E90635EB4251
:1021F00001D0002B3BD00F2DC8F8005004D8012D82
:10220000E1D0002DE2D00CE01046414600220793B9
:102210000FF01CFAD8F80020079B44F8180C44F87B
:10222000102C2A4619460FF017FDD8F8005054F824
:10223000180CCBE70DF5A464CBF804A020460FF0F2
:1022400027FAA742A4F11804F8D10C4A13491448FC
:102250000FF012F912491348FFF7CAFA074A0F495B
:1022600010480DF22C6DBDE8F04F0FF005B90E4887
:102270000FF052F9E83101081C040024000000248A
:10228000350C0008BC310108C4310108CC3101080B
:10229000D0310108D8310108E0310108F90B0008FC
:1022A000380400244404002454310108FFF72ABDF7
:1022B000704700BF202882B009D8084B03EB4002CA
:1022C00013F81030507843EA002002B07047012321
:1022D0000C2043EA002002B0704700BFEC31010837
:1022E000143001F0A9B900BF143001F0A1B900BF4A
:1022F00038B500F1140504462DED028B284601F097
:1023000089F9284601F094F92846B0EE408A01F098
:102310007DF9D0ED007AF8EE677A88EE277ABDEC89
:10232000028B84ED0E7A38BDF0B5032399B00027F7
:102330000125129306462C4B09A81595CDE90E737D
:1023400040F20453ADF84030284BCDE913570993C0
:1023500001F0E2F909A801F0BBFA002836D1244BBC
:1023600004AF04460090CDF842301023394604955E
:102370008DF820301F4BCDE91650CDE90650684648
:10238000059301F033FC0823009A01A909A8ADF8D0
:1023900004508DF8064009940295039300F0E4F888
:1023A00000230EA938463024049302F0E9F90322F1
:1023B0004FF07E5309A906F114000B930C93CDE95D
:1023C0000942049A01F0EAF819B0F0BD40F6013272
:1023D000074B169704AFADF824200998CDF842308A
:1023E000179500F081F8DBE7040204040303000101
:1023F000040604030704010B2DE9F04304462DED08
:10240000028B83B0002948D0012140F20112002341
:102410000091ADF804208DF80630304A0126304B8B
:10242000271D304904F12908626040F20272A3605E
:1024300040F60663E16004F125092682A4F8252010
:1024400084F82760A4F8293084F82B6002F026FD78
:102450006946054648B304F130008DF8066002F085
:102460007BFC072D34D104F114052046FFF75CFFF7
:10247000284601F0DDF82846B0EE408A01F0C6F8A3
:10248000D0ED007AF8EE677A88EE277A84ED0E7A3E
:1024900003B0BDEC028BBDE8F08340F20113009164
:1024A0008DF80610ADF80430B7E704F1300002F003
:1024B00053FC3946204601F0E3FD484601F02CF973
:1024C000404601F029F904F1120000F077F9CAE75B
:1024D0003946204601F0D4FDC5E700BF05080509CF
:1024E00005070506050A060610B584B00346012453
:1024F000ADF8040003A8ADF80C30ADF80E4001F0C3
:102500000BF9214603A801F0F1F9204602F058FB2F
:10251000002103A801F0EAF9204602F051FB214610
:1025200003A801F0E3F904B010BD00BF10B5C2F379
:10253000002384B00C46017C8DF80D2043EA440250
:10254000FA2402238DF80C2003AA009401F0E4FB86
:1025500018B10124204604B010BD04460A2002F040
:102560002FFB204604B010BD034670B543F8042B82
:10257000044684B007C983E80700A37983B91A2108
:102580000B461E22FA2523742046ADF80C200223A8
:1025900003AA009501F0C0FB28B1012004B070BD72
:1025A0001B210B46EDE70A2002F00AFB4FF4B8525C
:1025B00000950223ADF80C20204603AA217C01F0EF
:1025C000ABFB0028E9D10A2002F0FAFA41F20272CC
:1025D00000950223ADF80C20204603AA217C01F0CF
:1025E0009BFB0028D9D10A2002F0EAFA04220095C8
:1025F0000223ADF80C20204603AA217C01F08CFBBD
:102600000028CAD10A2002F0DBFA06220095022334
:10261000ADF80C20204603AA217C01F07DFB0028A8
:10262000BBD10A2002F0CCFA41F208220095022325
:10263000ADF80C20204603AA217C01F06DFB002898
:10264000ABD10A20064602F0BBFA0095022303AA8A
:10265000217C2046ADF80C6001F05EFB00289CD187
:10266000304602F0ADFA009522790C232046002A6C
:102670008DF80C3003AA4FF0020314BF62214221EF
:102680008DF80D10217C01F047FB002885D13046E4
:1026900002F096FA2279D4E902310B43DBB20AB98F
:1026A00043F0400362790AB143F020030E22FA2579
:1026B0008DF80D302046009502238DF80C2003AADA
:1026C000217C01F029FB00287FF467AF0A2002F08B
:1026D00077FA102200950223ADF80C20204603AAB9
:1026E000217C01F019FB00287FF457AF0A2002F08B
:1026F00067FA122100950223ADF80C1003AA217C81
:10270000204601F009FB00287FF447AF0A2002F0C1
:1027100057FA012209212046FFF708FF003818BFA9
:1027200001203BE7F0B5102387B0234C01220025A0
:102730000126002702A920460195CDE902234FF486
:102740008052CDE9046708F081FB642002F04CFE62
:1027500002A94FF480522046CDE9046702261027D3
:10276000CDE9026708F072FB0322102302A920467C
:10277000CDE9022300230422CDE904234FF4805243
:1027800008F064FB40F23223042202A901931023D3
:102790002046CDE90223019A012305924FF480528D
:1027A000049308F053FB40F60601204608F06EFB48
:1027B000284607B0F0BD00BF800500241C4B002256
:1027C0001C494FF0400C30B5054689B002205960D5
:1027D00007219A601A620124DA620A224FF4006E1D
:1027E000DC6006922022CDE9000104200821CDE919
:1027F000020103201021CDE9040108206946C3E944
:1028000004024FF4C072181DC3E906C24FF480528F
:10281000C3E909E208F0F0FA38B92846FFF782FF69
:10282000003818BF012009B030BD204609B030BDC6
:102830007C05002440410052614A0021D0B5136854
:102840008EB00A91002B40F0B9805E4B01214FF60B
:1028500083700C2411600221D3F8D42000260327B2
:1028600042F48052C3F8D420D3F8D42002F480522A
:102870000092009AD3F8E02042F01002C3F8E02062
:10288000D3F8E02002F010020192019AD3F8E02080
:1028900042F04002C3F8E020D3F8E02002F040020A
:1028A0000292029AD3F8E02042F00802C3F8E02036
:1028B000D3F8E02002F008020392039AD3F8E02054
:1028C00042F48072C3F8E020D3F8E02002F4807272
:1028D0000492049AD3F8E02042F08002C3F8E0208A
:1028E000D3F8E02002F080020592059AD3F8E020A8
:1028F00042F02002C3F8E020D3F8E02002F02002EA
:102900000692069AD3F8E02042F00402C3F8E020D1
:10291000D3F8E0300C9403F0040307930323079AE1
:102920000B93CDE9080108A9274803F003FE48F2FC
:102930003712022308A925480C94CDE90823CDE9D4
:102940000A6703F0F7FD4CF20372022308A920483E
:102950000C94CDE90823CDE90A6703F0EBFD40F2C2
:10296000FF62022308A91B480C94CDE90823CDE996
:102970000A6703F0DFFD4FF60C72022308A9164820
:102980000C94CDE90823CDE90A6703F0D3FD4FF697
:102990003F02022308A911480C94CDE90823CDE990
:1029A0000A6703F0C7FD2022022308A90A480C94F5
:1029B000CDE90A67CDE9082303F0BCFD0EB0D0BD18
:1029C00078050024004402580010025800180258EC
:1029D000000C025800200258001C02580014025833
:1029E0002DE9F04FDFF8108406460D46144608F135
:1029F00018002DED028B89B000AF01F0B9FFD8F8B7
:102A0000183073B3D8F81C30D8F80490002B436901
:102A10000BBF4FF0080A4FF0100A4FF0020B4FF0B7
:102A2000040BB9F1000F2AD0A200EA46012B02F1F3
:102A3000070222F00702ADEB020D6846ADEB020D76
:102A4000694600F03F81022B00F0D680002B6FD04A
:102A50002246C847D5462437BD46BDEC028BBDE8AB
:102A6000F08FD8F81C30002BF5D0D8F804904FF038
:102A7000080A4FF0020B4369B9F1000FD4D1FB6192
:102A8000D8F80030BB61002BE5D0D54801F0E2FF5B
:102A90006B46BBF1020F786108EE103AFB6900F05B
:102AA00083816A465146A2EBC40295466200EA461B
:102AB000B2FBFBF2AAEBC40085460AEB8200EE46AD
:102AC000F861ADEB010DF8690EEB820CC7F810C090
:102AD000EC46ADEB010D00EB8201CCF80400CCF824
:102AE000081001EB82013869E946CCF80C1000EBC4
:102AF0008201CCF800A001EB8202C9E900E0C9E93B
:102B00000212012B00F06483022B00F06C82002B78
:102B100000F08081620849466046BB69984718EE1C
:102B2000103A24379D46BD46BDEC028BBDE8F08FC0
:102B3000002C8DD01A46D8ED0C6A9FEDB27A8446EF
:102B4000331D36F922E00CF1080C07EE90EA33F958
:102B500022E00232F8EEE77A944267EE877A67EE77
:102B6000A67A4CED027A07EE90EAF8EEE77A67EE85
:102B7000877A67EEA67A4CED017AE2D8F9612246AF
:102B8000C847984ED8ED0D6A0020F9692B1D9FEDBE
:102B90009E7A9FED9E6ADFED9E5A22E0F4EEC67AA1
:102BA000F1EE10FAC0F2C88447F6FE72D1ED017A58
:102BB00045F8202066EEA77AF4EEC77AF1EE10FA17
:102BC00040F2F080F4EEC67AF1EE10FAC0F2D5844D
:102BD00047F6FE7243F820200230083184427FF627
:102BE00039AFD1ED007A66EEA77AF4EEC77AF1EE4E
:102BF00010FAD3D83246D9E7002C3FF429AFD8EDEC
:102C00000C6A84469FED787A0022331D8E4656F872
:102C100022100CF1080C07EE901A53F82210023221
:102C2000F8EEE77A944267EE877A67EEA67A4CED83
:102C3000027A07EE901AF8EEE77A67EE877A67EE87
:102C4000A67A4CED017AE2D871462246C7F81CE01C
:102C5000C847664ED8ED0D6A0020F9692B1D9FED1F
:102C60006A7A9FED6A6ADFF894C120E0F4EEC67AD2
:102C7000F1EE10FAC0F279843246D1ED017A45F8CE
:102C8000202066EEA77AF4EEC77AF1EE10FA40F251
:102C90008780F4EEC67AF1EE10FAC0F25E84324616
:102CA00043F820200230083184427FF6D3AED1EDC4
:102CB000007A66EEA77AF4EEC77AF1EE10FAD5D86C
:102CC0006246DAE7002C3FF4C3AED8ED0C6A8646C4
:102CD0009FED477A4FF0000C331D56F82C200EF173
:102CE000080E82F40002A2F5000207EE902A53F8C3
:102CF0002C200CF1020CF8EEE77A82F40002644515
:102D0000A2F5000267EE877A67EEA67A4EED027AA8
:102D100007EE902AF8EEE77A67EE877A67EEA67AF2
:102D20004EED017AD9D8F9612246C847314ED8ED27
:102D30000D6A0020F9692B1D9FED337A9FED336AF0
:102D4000DFF8BCC01FE0F4EEC67AF1EE10FAC0F274
:102D5000FC833246D1ED017A45F8202066EEA77A51
:102D6000F4EEC77AF1EE10FA18D9F4EEC67AF1EE65
:102D700010FAC0F2DA83324643F8202002300831DC
:102D800084427FF667AED1ED007A66EEA77AF4EE64
:102D9000C77AF1EE10FAD6D86246DBE76246EBE777
:102DA00062467DE7324615E7A100D6466208073144
:102DB00021F00701ADEB010DEA46ADEB010D6946CF
:102DC000ADEB0E0D0AEB8200EC46ADEB0E0D01EB08
:102DD0008202F861E946CCE900A0C9E9001290E658
:102DE000D00500240280FFFF000000300082FF7F3A
:102DF0000000003482FF7F00B4050024007E0080C4
:102E00007E0080FF0000003804FF7FBF04FF7F3F8B
:102E100000FEFF46002C00F0C982BBF1020FD8F87B
:102E2000242000F0FA827969C7F8049002EB810E41
:102E30005FED0C5A8A00DCF808100EF104007A618C
:102E40001A46DCF80C303B61331DD7F810903D6119
:102E5000FD69C7E902CB8C46834636F92210D8EDCE
:102E60000C7A06EE101A33F9221006EE901A3EF98B
:102E70002210B8EEC66A07EE101AF8EEE66A3BF9C1
:102E80002210B8EEC77A26EE256A66EEA56A27EE0E
:102E9000257A26EE276A66EEA76A27EE277A07EEDE
:102EA000901A51080232F8EEE77A0AEB8100944258
:102EB00080ED006A05EB810067EEA57AC0ED006A3F
:102EC0000CEB810009EB810180ED007A98ED0C7A22
:102ED00067EE877AC1ED007ABFD8D7F804903D69D4
:102EE000D7E902CB60466208BB6949469847D8F8E3
:102EF0002C307A69D8ED0D6A1A441FED3D7A1FED2A
:102F00003D6A2B1D904602F1040A5FED3F5A0022F4
:102F1000A84ED9E900EC51E0F4EEC67AF1EE10FAD1
:102F2000C0F2C78247F6FE7045F822000CEB0100A4
:102F3000D0ED007A66EEA77AF4EEC77AF1EE10FAD9
:102F40004BD9F4EEC67AF1EE10FAC0F2BA8247F627
:102F5000FE70BBF1020F43F822002BD0D9F8080015
:102F60000844D0ED007A66EEA77AF4EEC77AF1EE67
:102F700010FA36D9F4EEC67AF1EE10FAC0F2CD822C
:102F800047F6FE7048F82200D9F80C000144D1ED54
:102F9000007A66EEA77AF4EEC77AF1EE10FA1ED93F
:102FA000F4EEC67AF1EE10FAC0F2AF8247F6FE7187
:102FB0004AF82210023294427FF6B1AD51080EEB6E
:102FC00081008900D0ED007A66EEA77AF4EEC77A28
:102FD000F1EE10FAA0D83046A6E73046B9E7314600
:102FE000E6E73046CEE7002C00F0E081BBF1020FAF
:102FF000D8F8243000F0E1817A69DCF8081003EB9E
:10300000820EC7F804909300DFED6B5A0EF10400B6
:1030100000227B61DCF80C303B61331DD7F8109047
:103020003D61FD69C7E902CB8C46834656F8221004
:10303000D8ED0C7A07EE101A53F82210B8EEC76AD2
:1030400007EE101A5EF82210F8EEC76A07EE101AA3
:1030500026EE256A5BF82210B8EEC77A66EEA56AFE
:1030600026EE276A27EE257A66EEA76A27EE277AEC
:1030700007EE901A51080232F8EEE77A0AEB810067
:10308000944280ED006A05EB810067EEA57AC0ED01
:10309000006A0CEB810009EB810180ED007A98ED6C
:1030A0000C7A67EE877AC1ED007ABFD8D7F8049022
:1030B0003D69D7E902CB60466208BB69494698473B
:1030C000D8F82C307A69D8ED0D6A1A449FED3E7A13
:1030D0009FED3E6A131D9246DFF8E4C00022FB61BB
:1030E0002B1D364ED9E9008E4EE0F4EEC67AF1EE95
:1030F00010FAC0F2FC81304645F822000EEB0100C8
:10310000D0ED007A66EEA77AF4EEC77AF1EE10FA07
:1031100049D9F4EEC67AF1EE10FAC0F2EF813046EA
:10312000BBF1020F43F822002AD0D9F80800084466
:10313000D0ED007A66EEA77AF4EEC77AF1EE10FAD7
:1031400035D9F4EEC67AF1EE10FAC0F2C9813046F4
:103150004AF82200D9F80C000144D1ED007A66EE5D
:10316000A77AF4EEC77AF1EE10FA1ED9F4EEC67A19
:10317000F1EE10FAC0F2AD813146F86940F8221044
:10318000023294427FF6CBAC510808EB81008900F3
:10319000D0ED007A66EEA77AF4EEC77AF1EE10FA77
:1031A000A3D86046A8E76046BAE76146E5E760460F
:1031B000CEE700BF0280FFFF000000300082FF7FEB
:1031C000007E00800000003404FF7FBF04FF7F3FCB
:1031D000002C00F0EB807A690021D8F82430C7F881
:1031E000109003EB820ED7F81C909300FD610EF156
:1031F00004021FED0C6A7B61331D154656F8212031
:103200004808D8ED0C6ABBF1020F82F40002A2F567
:10321000000207EE902A53F8212082F40002B8EE53
:10322000E77AA2F5000227EE067A07EE902A0AEB6B
:103230008002F8EEE77A27EE267A67EE867A82ED4C
:10324000007A09EB80024FEA800067EEA67AC2EDB1
:10325000007A27D05EF8212082F40002A2F5000255
:1032600007EE902A55F8212082F40002B8EEE77AA2
:10327000A2F5000227EE067A07EE902ADCF8082075
:10328000F8EEE77A024427EE267A67EE867A82ED38
:10329000007A98ED0C7ADCF80C2067EE877A02440D
:1032A000C2ED007A02318C42A8D8D7F8109060465F
:1032B0006208BB694946FD699847D8F82C307A699D
:1032C000D8ED0D6A1A441FED407A1FED406A131DB8
:1032D0009246DFF8C4C20022FB612B1DAB4ED9E938
:1032E000008E4EE0F4EEC67AF1EE10FAC0F2C58020
:1032F000304645F822000EEB0100D0ED007A66EE74
:10330000A77AF4EEC77AF1EE10FA49D9F4EEC67A4C
:10331000F1EE10FAC0F2BF803046BBF1020F43F865
:1033200022002AD0D9F808000844D0ED007A66EED1
:10333000A77AF4EEC77AF1EE10FA35D9F4EEC67A30
:10334000F1EE10FAC0F2AE8030464AF82200D9F809
:103350000C000144D1ED007A66EEA77AF4EEC77A4C
:10336000F1EE10FA1ED9F4EEC67AF1EE10FAC0F2C0
:103370008B803146F86940F82210023294427FF681
:10338000CEAB510808EB81008900D0ED007A66EEE3
:10339000A77AF4EEC77AF1EE10FAA3D86046A8E750
:1033A0006046BAE76146E5E76046CEE72246494611
:1033B0006046BB699847FFF7B2BBC7F810B0002260
:1033C00098ED0C6A331DDFED726AD7F81CB078698E
:1033D00056F8221007EE901A53F82210B8EEE77A4A
:1033E00007EE901A51080232F8EEE77A27EE267AB5
:1033F0000AEB810E94420BEB810167EEA67A27EE71
:10340000067A67EE867A8EED007AC1ED007ADFD813
:103410008300D7F810B07B614DE61A46C7F810B0AC
:1034200098ED0C6A331DDFED5B6AD7F81CB0786944
:1034300036F9221007EE101A33F9221007EE901A0F
:10344000B8EEC77A51080232F8EEE77A27EE267A0C
:103450000AEB810E94420BEB810167EEA67A27EE10
:10346000067A67EE867A8EED007AC1ED007ADFD8B3
:103470008300D7F810B07B6134E5F0EE675AFEEEBA
:10348000E45A15EE900A34E7F0EE675AFEEEE45A7D
:1034900015EE901A6EE7F0EE675AFEEEE45A15EE5E
:1034A000900A3AE7F0EE675AFEEEE45A15EE900AFB
:1034B0004BE767EEA57AFDEEE77A17EE900A00B2C9
:1034C00032E567EEA57AFDEEE77A17EE900A00B2D4
:1034D0003FE5F0EE675AFEEEE05A15EE901A4CE624
:1034E000F0EE675AFEEEE05A15EE900A30E6F0EE86
:1034F000675AFEEEE05A15EE900AFDE5F0EE675AC7
:10350000FEEEE05A15EE900A0AE667EEA57AFDEEA9
:10351000E77A17EE901A09B24AE567EEA57AFDEE52
:10352000E77A17EE900A00B22CE5F0EE675AFEEE4D
:10353000E45A15EE902A1FE467EEA57AFDEEE77ACD
:1035400017EE902A12B2FFF731BBF0EE675AFEEE8B
:10355000E45A15EE902AFFF7FDBBF0EE675AFEEE37
:10356000E05A15EE902AFFF79BBBF0EE675AFEEE8D
:10357000E05A15EE902AFFF780BB67EEA57AFDEEC4
:10358000E77A17EE902A12B2FFF724BB82FF7F0082
:1035900000000030000000387E0080FF30B5184C7D
:1035A000154685B0046004F1080EEC460FC98EE89C
:1035B0000F00D4ED047AF5EEC07A8CE80F00F1EE3E
:1035C00010FA1ADDB7EE006A94ED057A27EE277A35
:1035D000C6EE276A84ED0D7AC4ED0C6A6DB1204603
:1035E00040F8185F01F0C4F9064903690020064A53
:1035F0002162A262E36005B030BD012005B030BD9C
:10360000B4050024002000300000003000680830BD
:10361000704700BFB1F5807F03680A4628BF4FF4AA
:103620008072B1F5807F9A6094BF002001207047BE
:103630000068183001F0FCB930B5046883B0084860
:103640000D46A368A26A216A9B00009004F118004D
:1036500001F090F90020C4E9000503B030BD00BFBF
:10366000E129000810B4074B4FF07E5130240022AE
:10367000032019619C60D8605DF8044B5961C3E96F
:1036800006227047B405002470B5044682B0C1F329
:103690000726CDB2ADF8041001F090FA4FF4807215
:1036A0004FF001232060A01DA571A280E671A360E8
:1036B00002B0BDE8704000F02FB800BF38B5044636
:1036C00001F07CFA002223682271834210D001228B
:1036D000A57AE37A954020602271A01D6DB243B9AE
:1036E00000F0F6F840B22843C0B27F28A0720AD09A
:1036F00038BD00F0EDF8B0FA80F040092843C0B2C0
:103700007F28A072F4D101F059FA07EE900AF8EE82
:10371000677AC4ED037A38BD8378022B30B504464E
:103720008FB037D0032B33D0012B31D000230A9335
:10373000E378012B2AD0022B28D000230B930023FF
:1037400020460C9301F02EFD0546204601F032FD87
:1037500023780990082B13D8DFE803F01F3245586F
:103760006B7E91A40500594BD3F8E02042F480729F
:10377000C3F8E020D3F8E03003F480730893089B8B
:1037800009A9284602F0D6FE0FB030BD0B93D6E74C
:103790000A93CDE711230A93CAE74C4B09A928469F
:1037A000D3F8E02042F00102C3F8E020D3F8E03083
:1037B00003F001030093009B02F0BCFE0FB030BD8C
:1037C000424B09A92846D3F8E02042F00202C3F890
:1037D000E020D3F8E03003F002030193019B02F0F4
:1037E000A9FE0FB030BD394B09A92846D3F8E02017
:1037F00042F00402C3F8E020D3F8E03003F0040301
:103800000293029B02F096FE0FB030BD2F4B09A928
:103810002846D3F8E02042F00802C3F8E020D3F8AD
:10382000E03003F008030393039B02F083FE0FB024
:1038300030BD264B09A92846D3F8E02042F01002FB
:10384000C3F8E020D3F8E03003F010030493049BA6
:1038500002F070FE0FB030BD1C4B09A92846D3F80A
:10386000E02042F02002C3F8E020D3F8E03003F07B
:1038700020030593059B02F05DFE0FB030BD134B96
:1038800009A92846D3F8E02042F04002C3F8E0201E
:10389000D3F8E03003F040030693069B02F04AFEA3
:1038A0000FB030BD094B09A92846D3F8E02042F0FB
:1038B0008002C3F8E020D3F8E03003F080030793E0
:1038C000079B02F037FE0FB030BD00BF0044025826
:1038D00038B5054601F066FC0446284601F06AFC4E
:1038E00001462046BDE8384003F02CB870B50646C6
:1038F0000D4601F057FC0446304601F05BFC2A1EE1
:103900000146204618BF0122BDE8704003F020B8F0
:103910000023122270B586B0CDE902230493036818
:10392000032B01D804230593061D841D304601F0A6
:1039300039FC0546304601F03DFC034601A9284606
:10394000019302F0F7FD204601F02CFC03462046CF
:103950001C4601F02FFC01A903462046019302F00A
:10396000E9FD06B070BD00BF634A0368934210B51D
:103970008CB028D0614A934258D0614A934200F0FB
:103980009480604A934201D00CB010BD5E4C5F48F9
:10399000D4F8E03043F00203C4F8E030D4F8E0306B
:1039A00003F002030A930A9BFFF7B2FFD4F8F43046
:1039B00043F08003C4F8F430D4F8F43003F080030B
:1039C0000B930B9BE0E7504C5148D4F8E03043F0A8
:1039D0000203C4F8E030D4F8E03003F002030193AE
:1039E000019BFFF795FFD4F8E83000221F2043F435
:1039F00000131146C4F8E830D4F8E83003F400139B
:103A00000293029BD4F8D83043F00103C4F8D830B5
:103A1000D4F8D83003F001030393039B01F00EFDAB
:103A20001F200CB0BDE8104001F046BD364C3948AF
:103A3000D4F8E03043F08003C4F8E030D4F8E0304C
:103A400003F080030493049BD4F8E03043F00203B6
:103A5000C4F8E030D4F8E03003F002030593059B8E
:103A6000FFF756FFD4F8E8300022212043F480030A
:103A70001146C4F8E830D4F8E83003F48003069324
:103A8000069BD4F8D83043F00103C4F8D830D4F8FA
:103A9000D83003F001030793079B01F0CFFC2120EE
:103AA0000CB0BDE8104001F007BD1B48FFF730FF28
:103AB000154B00224820D3F8E840114644F4000496
:103AC000C3F8E840D3F8E84004F400040894089CE4
:103AD000D3F8D84044F00104C3F8D840D3F8D83024
:103AE00003F001030993099B01F0A8FC48200CB0E6
:103AF000BDE8104001F0E0BC005400400058004018
:103B0000005C0040001C0058004402587808002463
:103B1000F0050024C8060024A00700242DE9F04386
:103B20001A4B87B000254FF010099E46EC46184B03
:103B3000FF22E04667461A700EF118060EF13004B7
:103B4000CDE90055CDE90255ADF80090BCE80F0075
:103B5000CDE90455AEE80F009CE803000095ADF8F0
:103B600000908EE80300B8E80F000FC69CE8030041
:103B70000095ADF8009086E803000FCF0FC49CE8D5
:103B8000030084E8030007B0BDE8F0830C000024C4
:103B9000EC05002410B5EFF3108472B6084B1A78C8
:103BA000120602D504B962B610BD1B78D8220548AA
:103BB0005BB202FB0300143002F06AF9F2E700BFC7
:103BC000EC050024F0050024014803F059BD00BFB6
:103BD0007C060024014803F053BD00BF54070024B5
:103BE000014803F04DBD00BF2C0800242DE9F0432F
:103BF0000F68D8243F4D85B007FB04F4032F05EB75
:103C00000403036040DCCB680E46012B3CD84DD04A
:103C10004FF0D808B646DFF8FC9008FB0758BEE81E
:103C20000F00C446ACE80F00DEF800300DF1100EB6
:103C3000CCF80030D8F808C099E80F000EE90F0062
:103C40000EEB8703BCF1010F53F8103CC8F88C3021
:103C500031D0BCF1020F42D0BCF1000F35D0317C25
:103C60008C34D823002201202C4403FB0753490045
:103C7000C3E92602C3F894102046C3E92822C3E909
:103C80002A2203F0EFFA18B1012005B0BDE8F08355
:103C90000146204603F000FD0028F5D101462046EC
:103CA00003F024FD003818BF0120EEE70B7C103B29
:103CB000672BADD9E8E701F0EFF80F4B98420CBF46
:103CC0000E4B0F4BC8F89030C9E701F0E5F80A4BEE
:103CD00098420CBF0B4B0C4BC8F89030BFE701F07B
:103CE000DBF8054B98420CBF084B094BC8F89030E5
:103CF000B5E700BFF0050024000E27072D0FB030F8
:103D00003211D0205F4390608A62E030200BA01017
:103D10001A098010203101082DE9F041D0F8008007
:103D200082B00D4617461E4608F18C04204603F06B
:103D3000AFFC2028FAD1D8F80C3073B96D002046BA
:103D4000089C33463A46A9B2009403F0E1FA0038E1
:103D500018BF012002B0BDE8F081089B3246394609
:103D6000204603F0A9FBF2E7044B10221A7483F8F3
:103D7000E82083F8C02183F898227047F0050024DA
:103D800030B5002395B04FF48071062204460B93A2
:103D900006921393CDE90C13CDE90E33CDE911331F
:103DA00001F07CF807282BD004F1100541F288328D
:103DB00006A9284604F0ACFA28B10123184684F875
:103DC0005C3015B030BD0222022306A92846CDE999
:103DD000002310220123CDE9022300224FF48003A7
:103DE000CDE9042305224FF0807306926A460F93B3
:103DF00041F2883304F0F8FB0028DED115B030BD65
:103E00000323012084F85C3015B030BD00000000B1
:103E100070B50023A4B04FF080724FF48075044653
:103E2000ADF806300D93CDE910320122CDE90E53E5
:103E3000CDE91223CDE91433002943D0F02300F15A
:103E4000100508AEADF80630C02341F28832314685
:103E50002846089304F05CFA28B10123184684F838
:103E60005C3024B070BD41F288320DF10601284665
:103E700004F0B8FA03460028EFD105224FF4807110
:103E80001E93284616924FF080721B9321931F9227
:103E900002AA9FED1F7BCDE91C13CDE922338DEDE6
:103EA000027B9FED1D7B41F2883316A98DED047BCB
:103EB0009FED1B7B8DED067B04F096FB0028CCD19B
:103EC00024B070BD00F1100508AE612341F28832C4
:103ED00031462846089304F01BFA0028BDD141F270
:103EE00088320DF10601284604F0FAFA0028B4D110
:103EF000BDF80630204623F0780343F04003ADF8C8
:103F00000630FFF73DFF00289ED0A6E7AFF3008004
:103F1000000000000100000010000000010000008F
:103F200000000000000040002DE9F04F00234FF496
:103F3000807501264FF0807804462DED028BABB0E2
:103F40008DF8073013932193299314950E96CDF88D
:103F50005C80CDE91533CDE91863CDE91A33CDE99D
:103F60002253CDE92433CDE9273306231C9300F0F7
:103F700095FF072808D004F1100741F288321CA9E8
:103F8000384604F0C5F940B10123184684F85C3086
:103F90002BB0BDEC028BBDE8F08F4FF0020A4FF062
:103FA000020B4FF0050941F2883308AA1CA93846D4
:103FB000CDF89480CDF870909FED2D8BCDE908ABB6
:103FC0004FF0000A4FF4800B8DED0A8BCDE90CAB5E
:103FD00004F00AFB0028D7D141F2883238460EA9F6
:103FE00004F096F90028CFD1402341F288320DF138
:103FF000070138468DF8073004F0F4F90028C3D1E2
:1040000041F288330EA902AA3846CDF83890CDF88F
:104010005C809FED197B8DED048BCDE906AB8DEDBA
:10402000027B04F0E1FA03460028ADD1CDF8709090
:104030004FF00109CDF894804FF00008219308AAB1
:1040400029931CA938462295CDE92333CDE927339E
:1040500041F288338DED0A8BCDE90CABCDE90889AF
:1040600004F0C2FA002893D0304684F85C608FE7F1
:1040700010000000010000004000000040000000AF
:104080002DE9F043624CA3B00D46046000F006FF3A
:10409000072800F0A980286823466968AA6807C332
:1040A0001E46AB8926F8043B3046257B677B04F02F
:1040B00011F9E0B9574B012D4FF00108E061236180
:1040C00014BF4FF480134FF40003C4E9058893FA3A
:1040D000A3F3B3FA83F34FF48079013BC4F824903F
:1040E000C4E90B003046236204F088F838B101229D
:1040F000134684F85C20184623B0BDE8F08366239D
:104100000B90139041F2883206A90693CDE90C90EA
:10411000CDE90E00CDE91100304604F0F9F8002891
:10412000E5D1992341F2883206A93046069304F07E
:10413000EFF80028DBD105231C9019906A461493F0
:104140004FF08073219014A91D9341F288339FEDA5
:104150002A7BCDE91A90CDE91F008DED007B9FED04
:10416000287B30468DED027B9FED277B8DED047B18
:1041700004F03AFA0028BAD129462046FFF748FE53
:104180000028B4D12046FFF7CFFE03460028AED169
:10419000002FB0D1189330460027002606AA14A994
:1041A000CDF86890CDE91F33EB2314934FF44063AF
:1041B0001B934FF4005317934FF440431C93A023D9
:1041C0001693062319934FF0805321934FF04073B9
:1041D000CDE906671D9304F07FFA034600288AD0D4
:1041E000434684F85C8086E701230322184684F85E
:1041F0005C2023B0BDE8F083000000000100000057
:10420000100000000100000000000000000040005D
:1042100050090024005000522DE9F04F8FB0414B5F
:104220000024026800AF9A427C63C7E90944C7E9E9
:104230000B4403D03C37BD46BDE8F08F3A4B40F607
:1042400009213A48EB46D3F8D42007F11C0607F1C0
:10425000220A4FF0020942F480424FF00308C3F8EB
:10426000D420D3F8D42002F48042BA60BA68D3F8DC
:10427000E02042F04002C3F8E020D3F8E02002F052
:104280004002FA60FA68D3F8E02042F02002C3F856
:10429000E020D3F8E02002F020023A613A69D3F836
:1042A000E02042F01002C3F8E020D3F8E02002F052
:1042B00010027A617A69D3F8E02042F00202C3F872
:1042C000E020D3F8E030F86103F002033984BB61E9
:1042D000174B7B60BB697B6853F8040F7B6000F071
:1042E00061FF7B680546186800F064FF16F8013B23
:1042F000786207F124012846C7F830807B63C7E95C
:104300000A9402F017F95645E5D100225C201146C7
:1043100001F094F85C2001F0CFF83C37DD46BD4653
:10432000BDE8F08F00500052004402580A0A090903
:10433000AC090024114B02689A4200D07047104A21
:1043400070B5D2F8D4300F4C23F4804304F1180632
:10435000C2F8D43054F8040F00F024FF054620685A
:1043600000F028FF0146284602F024FAB442F1D1B9
:104370005C20BDE8704001F0ADB800BF00500052B5
:1043800000440258AC090024014804F031BA00BFCF
:1043900060090024084B1A1D981D03F1080110B490
:1043A0009C1C9A6603F10A02C3E91834C3E91B0195
:1043B0005DF8044B5A6770475009002438B503680C
:1043C00071B9026A00F1280500F5AC74012A0CBF2E
:1043D000002140218BBB1D4B5722C0F858310DE006
:1043E000426A00F1C00500F5E874012A0CBF002103
:1043F0004021EBB1164B5A22C0F8D03100232046A1
:10440000C4E901214FF480524FF48061636262611C
:104410004FF48042C4E903314FF48073C4E90623AA
:104420004FF40033236201F0BBF958B1FFBEFEE741
:10443000084B5822C0F8D031E0E7074B5922C0F8AA
:104440005831DBE7C5E92044A56338BD10000240C0
:104450007000024028000240580002402DE9F0435D
:10446000821D05468BB0031D05F10A010830CDE918
:10447000052305F10C02AB69CDE907010992002B78
:104480003DD0EB69B3FA83F84FEA581801230222B2
:1044900005AE0AAF4FF006090393CDE9012356F8A4
:1044A000044B2B792278934216D02B68F3B1012B61
:1044B00002D1F2B10A230493204600F07BFE0346AA
:1044C0002046009300F06EFE694602F033F8BE42CB
:1044D000E5D10BB0BDE8F083697963789942E4D106
:1044E000B8F1000FF3D02B68002BE0D1CDF810907D
:1044F000E2E76378022B14BF0A230823DBE74FF0BF
:104500000108C3E7534A0368934230B505468BB0B0
:1045100055D02032934252D04F4A934204D0203299
:10452000934201D00BB030BD4C4C4D48D4F8E03034
:1045300043F00103C4F8E030D4F8E03003F00103A5
:104540000593059BD4F8E03043F00803C4F8E0304D
:10455000D4F8E03003F008030693069BD4F8E0306B
:1045600043F04003C4F8E030D4F8E03003F04003F7
:104570000793079BD4F8F03043F40003C4F8F030FD
:10458000D4F8F03003F400030893089BFFF766FFAC
:10459000D4F8D830296843F001032F4A3048C4F8D2
:1045A000D830891AD4F8D83018BF012103F001039C
:1045B0000993099B0BB0BDE83040FFF7FFBE274CC5
:1045C0002848D4F8E03043F00103C4F8E030D4F8D0
:1045D000E03003F001030093009BD4F8E03043F097
:1045E0001003C4F8E030D4F8E03003F01003019376
:1045F000019BD4F8E03043F04003C4F8E030D4F835
:10460000E03003F040030293029BD4F8F03043F40F
:104610008003C4F8F030D4F8F03003F4800303933F
:10462000039BFFF71BFFD4F8D830296843F0010340
:10463000084A0C48C4F8D830891AD4F8D83018BFC2
:10464000012103F001030493049B0BB0BDE830404B
:10465000FFF7B4BE04580140045C01400044025816
:10466000240C0024C8090024014801F011BC00BF3B
:10467000200B0024014801F00BBC00BF980B002464
:10468000014801F005BC00BF7C0D0024014801F089
:10469000FFBB00BFF40D00241A4A0368934210B414
:1046A0000BD02032934208D0174A934216D02032C2
:1046B000934213D05DF8044B7047144B0022D3F89B
:1046C0005442C3F85822002CF4D0D3F84802D3E95E
:1046D000931223465DF8044B520818470B4B0022F7
:1046E000D3F8B044C3F8B424002CE3D0D3F8AC24FE
:1046F000D3F8A814D3F8A404520823465DF8044B59
:10470000184700BF04580140045C0140C809002458
:10471000184A0368934210B40BD02032934208D059
:10472000154A934217D02032934214D05DF8044BBF
:104730007047124BD3E994245208C3F85822002C36
:10474000F4D0D3E99201234601EB820100EB820011
:104750005DF8044B1847094BD3F8AC24D3F8B044A8
:104760005208C3F8B424002CE0D0D3F8A814D3F82E
:10477000A404E8E704580140045C0140C80900248F
:104780002DE9F04F0C684FF41776754F87B004FB96
:1047900006F6012C07EB060AC0F800A000F3A08083
:1047A0000D468E464FF00008D44669A3D3E9002396
:1047B00069A1D1E90001CDE9022306ABCAF8508214
:1047C00003EB8403CDE9040153F810BC53F8083C13
:1047D000CAE992880193BEE80F00ACE80F00BEE87A
:1047E0000F00ACE80F00019B9EE80300CAF828B058
:1047F000CAF8C0308CE803002B69042B0CD8DFE822
:1048000003F0737D879103004FF41773554A03FB40
:1048100004739A64C3F8E020AA692B6A002A43D083
:10482000002B4FF4177308BF022203FB047318BF59
:104830000322DA6201221A63EA696B6A002A40D114
:10484000191E4FF4177318BF012103FB0473C3E94A
:1048500031126B69022B05D8434A12F80380434A90
:1048600052F823904FF4177306F128004246494648
:1048700003FB04740023384463646363E365C4F892
:10488000DC30C4F8CC30C4F8F430C4E90F33C4E9E8
:104890001533C4E93533C4E93B33022306F04AF843
:1048A000002849D0FFBEFEE7191E4FF4177318BF4A
:1048B000012103FB0473C3E90B12EA696B6A002A46
:1048C000BED0002B4FF4177308BF022203FB047302
:1048D00018BF0322C3F8C4200122C3F8C820B8E7D8
:1048E000012007B0BDE8F08F4FF417734FF4FA5270
:1048F00003FB04739A64C3F8E0208DE74FF4177349
:104900004FF47A5203FB04739A64C3F8E02083E700
:104910004FF417734FF4FA4203FB04739A64C3F81D
:10492000E02079E74FF417734BF6803203FB0473F2
:104930009A64C3F8E0206FE706F1C0000223424604
:104940004946384405F0F6FF0028CAD0FFBEFEE70E
:1049500004580140045C014024580140245C01409B
:10496000C809002400770100303201083432010800
:104970000068704770B5046882B015460E46C4F8EA
:104980005032C4E99212069AC4F85422A269012A4C
:1049900026D0626A012A9AB211D0294604F1C000D9
:1049A000019206F083F8236A019A012B10D0294660
:1049B00004F1280006F07AF8002002B070BD04F17E
:1049C000C000019206F004F9236A019A012BEED18E
:1049D000314604F1280006F0FBF8002002B070BD5B
:1049E000226A012A9AB211D0294604F128000192C4
:1049F00006F05CF8636A019A012B10D0294604F195
:104A0000C00006F053F8002002B070BD04F1280089
:104A1000019206F0DDF8636A019A012BEED131466E
:104A200004F1C00006F0D4F8002002B070BD00BF51
:104A300003681B69042B05D8044A02EB830393ED3A
:104A4000000A70479FED020A704700BF403201081C
:104A500000803B470368D3F858027047704700BF97
:104A600008B500F0AFFCBDE8084000F0AFBD00BFE6
:104A7000064808B503680BB101F06EFF04480368EF
:104A80001BB1BDE8084002F05DBE08BD90120024D5
:104A9000880E0024064808B503680BB101F05CFFDE
:104AA000044803681BB1BDE8084002F04BBE08BDD6
:104AB00090120024880E0024064808B503680BB144
:104AC00001F04AFF044803681BB1BDE8084002F04A
:104AD00039BE08BD90120024880E0024364BDA6AD5
:104AE000520062D59A6A9A6A9A6A9B6A180600D539
:104AF00000BE314B9B6A990600D500BE2E4B9B6AC7
:104B0000DA0600D500BE2C4B9B6A1B0700D500BE01
:104B1000294B9B6A980700D500BE274B9B6AD90793
:104B200000D500BE244B9B6A1A0400D500BE224B60
:104B30009B6A9B0400D500BE1F4B9B6AD80400D51E
:104B400000BE1D4B9B6A190500D500BE1A4B9B6A1F
:104B50005A0500D500BE184B9B6A9B0500D500BEC8
:104B6000154B9B6AD80500D500BE134B9B6A990173
:104B700000D500BE104B9B6ADA0100D500BE0E4B7B
:104B80009B6A1B0300D500BE0B4B9B6A580300D5E4
:104B900000BE094B9B6A990300D500BE064B9B6A79
:104BA000DA0306D400BE00BEFEE7DB6A9B07FAD537
:104BB000F8E700BEF6E700BF00ED00E000F00EBC35
:104BC00000F012BC2DE9F041CEB004464C22002189
:104BD0000AA80DF069F82022002102A80DF064F85F
:104BE000BC2200211EA80DF05FF8022003F01EFA7F
:104BF0002368012B4FF0000354D0534A0225019340
:104C0000C820D16A514B21F00101D162D26A02F071
:104C1000010201929A6942F440429A619B6903F44D
:104C200040430193019B494A93699B04FCD5484941
:104C30000224002201268B6A04274FF0080823F083
:104C4000030323438B62052316900AA818934FF49D
:104C500080331096179419941597CDF86880CDE994
:104C60001B222122CDE91344CDE90A2303F0C8FE1B
:104C700000B1FEE73F220323294602A8CDE9022323
:104C800000220823CDE9042340224023CDE9062356
:104C900040234FF48062CDE9082304F0DFF9034696
:104CA000B8B1FEE7294A04250093F0209169264B0C
:104CB00041F440419161926902F440420092DA6A03
:104CC00042F00102DA62DB6A03F001030093009B09
:104CD000A9E720224FF4805125934FF440152B92E1
:104CE00080222D931EA83093269135914FF4807128
:104CF000249234920C223394439140F22711209253
:104D00001022CDF884802A971F96CDE92E34CDE964
:104D10003B334FF48033CDE9224631930024469350
:104D20000623CDE93E4527934FF48063094C2C932D
:104D30001E94CDE9281204F0EDFB00B1FEE703F06C
:104D40009BF94EB0BDE8F0810004005800480258BD
:104D5000004402580F130F032DE9F0410D4604469D
:104D600084B0D1E9000184E8030000F0FBFAAE79D9
:104D7000002E37D06F4609F06FFAFEF7CFFE07F02E
:104D80003BFF08F0F3FF2B79002B54D16B799BB1DB
:104D9000BFF34F8FBFF36F8F3C4B0022C3F85022FD
:104DA000BFF34F8FBFF36F8F5A6942F400325A61DD
:104DB000BFF34F8FBFF36F8F4FF0FF3200230024FC
:104DC00000253946324802928DF80C30CDE9004575
:104DD00008F032FB2E4808F097FB07F03DFB04B0CB
:104DE000BDE8F08120466F46FFF7ECFE012400F09D
:104DF0009BFB4FF040534FF4807838460193254B8E
:104E0000ADF80040CDE9023800F0ACFB19224FF0BC
:104E1000404338468DF80F40ADF80D808DF80140C5
:104E20008DF80A608DF80820019300F09BFB0420A8
:104E300000F088FB9FE7154C0023C4F88430BFF3D3
:104E40004F8FD4F8803043F6E07EC3F3C906C3F336
:104E50004E334FEA431C0CEA0E00334640EA83729D
:104E6000013BC4F860225A1CF8D1ACF1200C1CF1B3
:104E7000200FF0D1BFF34F8F636943F48033636138
:104E8000BFF34F8FBFF36F8F80E700BF00ED00E0EF
:104E9000800E00240E00010304F010BA1C4B9B6826
:104EA00003F17842B2F5003F25D3B3F5803F20D31C
:104EB00003F16042B2F5003F1FD303F15C42B2F54B
:104EC000002F1CD303F17042B2F5902F19D303F1D8
:104ED0004842B2F5803F16D303F18042B2F1806FB1
:104EE00013D303F1E043B3F5000F2CBF08200720D4
:104EF0007047012070470020704702207047032050
:104F0000704704207047052070470620704700BF97
:104F100000ED00E003480023034A044903600CF05D
:104F2000ABBA00BF800E0024000000245D4A0008D8
:104F300010B4204C0022204B83B0D4F888101F48B6
:104F400041F47001C4F8881019681D4C41F001014A
:104F500019601A61196808401A4918609A61DA6183
:104F60001A629A62DA621A635A639A63DA631A649B
:104F70005A64186820F4802018601A66D3F8DC2080
:104F800042F06042C3F8DC20D3F8DC300193019B8F
:104F900023681940B1F1005F03D20B4B0122C3F823
:104FA0000821044B4FF000629A6003B05DF8044B97
:104FB000704700BF00ED00E0004402587FEDF6EAC4
:104FC0000010005C0000FFFF0080005100F57171CF
:104FD000D0F8040406F028BEC1EBC10300EB830344
:104FE000D0F80404D3F8082206F04CBEC1EBC1038C
:104FF00000EB8303D0F804049A6C06F081BE00BF76
:10500000D0F8040406F020BFC16810B5044619B1F9
:10501000022900D0FEE70121D4F8040406F0FEFEC8
:10502000D4F80404BDE8104006F0D0BE10B5044624
:10503000D0F8040406F0F6FE2268D2F8003E43F0F1
:105040000103C2F8003E236A23B1034A136943F007
:105050000603136110BD00BF00ED00E0D0F80404AA
:1050600006F0EABED0F8040406F0FEBED0F8040450
:1050700006F0F8BED0F8040406F0F8BED0F8040438
:1050800006F0F6BE9446D0F898021A4608B5634674
:1050900002F0BCFE032802D8024B185C08BD0220B7
:1050A00008BD00BF64320108D0F8980208B502F0CC
:1050B0003BFF032802D8024B185C08BD022008BD44
:1050C00064320108D0F8980208B502F071FF032895
:1050D00002D8024B185C08BD022008BD64320108EA
:1050E0000A06D0F8983206D4C1EBC10103EB810166
:1050F00091F8FE01704701F07F01C1EBC10103EBA4
:10510000810191F83E007047D0F8980208B502F08E
:1051100067FE032802D8024B185C08BD022008BDB8
:1051200064320108D0F8980208B502F0D5FE0328D1
:1051300002D8024B185C08BD022008BD6432010889
:10514000D0F8980208B502F09FFE032802D8024B5F
:10515000185C08BD022008BD64320108D0F8C00206
:1051600007F034B9D0F8C00207F048B9D0F8C0024F
:1051700007F050B9704700BFD0F8C00207F036B949
:10518000D0F8C00207F036B9D0F8D00308B501F066
:10519000A3FF032802D8024B185C08BD022008BDFB
:1051A00068320108024B027853F82200704700BFB2
:1051B0008C320108024B427833F81200704700BF6E
:1051C0006C3201088CB00A2814D8DFE800F01523EF
:1051D000313F4D5B6977859306004D4BD3F8E02056
:1051E00042F48062C3F8E020D3F8E03003F4806337
:1051F0000B930B9B0CB07047454BD3F8E02042F06B
:105200000102C3F8E020D3F8E03003F0010301937A
:10521000019BEFE73E4BD3F8E02042F00202C3F8D7
:10522000E020D3F8E03003F002030293029BE1E7B1
:10523000374BD3F8E02042F00402C3F8E020D3F863
:10524000E03003F004030393039BD3E7304BD3F820
:10525000E02042F00802C3F8E020D3F8E03003F089
:1052600008030493049BC5E7294BD3F8E02042F0E0
:105270001002C3F8E020D3F8E03003F010030593E8
:10528000059BB7E7224BD3F8E02042F02002C3F899
:10529000E020D3F8E03003F020030693069BA9E753
:1052A0001B4BD3F8E02042F04002C3F8E020D3F8D3
:1052B000E03003F040030793079B9BE7144BD3F8C0
:1052C000E02042F08002C3F8E020D3F8E03003F0A1
:1052D00080030893089B8DE70D4BD3F8E02042F440
:1052E0008072C3F8E020D3F8E03003F480730993B0
:1052F000099B7FE7064BD3F8E02042F40072C3F825
:10530000E020D3F8E03003F400730A930A9B71E7BE
:1053100000440258704700BF0F4B1B780BB90120A7
:10532000704710B504464FF47A700C4AB0FBF3F3A3
:105330001068B0FBF3F000F0E1F80F2C00D808B1D2
:10534000012010BD002221464FF0FF3000F076F81A
:10535000034B00201C6010BD5C000024540000249E
:105360006000002438B50320124D00F055F8124CAF
:1053700003F0D4FD114A12499369C3F30323CB5CB4
:1053800003F01F0320FA03F30E202B60926902F052
:105390000F028A5C02F01F02D3402360FFF7BCFFBC
:1053A00010B10124204638BD0446FFF7B3FF204664
:1053B00038BD00BF540000245800002400440258A7
:1053C00054320108034A044B11681B780B441360E4
:1053D000704700BF541500245C000024014B18687E
:1053E000704700BF5415002438B50446FFF7F6FF98
:1053F0000546631C02D0044B1B781C44FFF7EEFFEC
:10540000431BA342FAD338BD5C000024014B18684B
:10541000000C70470010005C06494FF6FF0C0002BC
:10542000054BCA6800F4E06002EA0C021043034333
:10543000CB60704700ED00E00000FA051B4BDB6815
:10544000C3F3022300B5C3F1070E03F1040CBEF150
:10545000040F28BF4FF0040EBCF1060F1AD9033B0E
:105460004FF0FF3C0CFA03FC22EA0C024FF0FF3C29
:1054700000280CFA0EFC21EA0C0101FA03F141EAC2
:1054800002010ADB09010A4BC9B2034483F8001385
:105490005DF804FB00221346E8E700F00F00090165
:1054A000044BC9B2034419765DF804FB00ED00E03B
:1054B00000E100E0FCEC00E0002807DB00F01F0149
:1054C00001234009024A8B4042F82030704700BF58
:1054D00000E100E000280DDB4309012200F01F007D
:1054E0000549203302FA00F041F82300BFF34F8F43
:1054F000BFF36F8F704700BF00E100E0431EB3F1C0
:10550000807F0CD24FF0E022002006494FF0F00CD3
:105510005361072381F823C0906113617047012014
:10552000704700BF00ED00E0BFF35F8F044B002128
:105530005A6A22F480325A62C3F89410704700BF4E
:1055400000ED00E0064B40F00100C3F894005A6AF9
:1055500042F480325A62BFF34F8FBFF36F8F7047B0
:1055600000ED00E0174A4378C2F89830017821B383
:10557000436800B5C2F89C30C37A90F80CC01B0693
:1055800090F80FE043EA0C7390F80AC00B43817B5C
:1055900043EACC4390F80DC043EA8C4390F809C02D
:1055A00043EA4143017A43EA0E4343EA0C2343EAC8
:1055B0004103C2F8A0305DF804FBC2F89C10C2F8A9
:1055C000A010704700ED00E0704700BF08B5FFF77E
:1055D000FBFF08BD0268344B344930B4344D354CC0
:1055E000AA4218BF9A420CBF012300238A4208BF77
:1055F00043F001033031A24208BF43F001033034CD
:105600008A4208BF43F001033031A24208BF43F091
:10561000010330348A4208BF43F0010301F55C7195
:10562000A24208BF43F0010304F55C748A4208BF3C
:1056300043F001033031A24208BF43F0010330348C
:105640008A4208BF43F001033031A24208BF43F051
:10565000010330348A4208BF43F001033031A242D3
:1056600008BF43F001038A4208BF43F0010313B9A6
:10567000114B9A4213D1D3B21049114C103BA1FBEC
:1056800003515F2B0F4BC1F3021103EA0203615C6C
:1056900088BF0433C1658365184630BC704722F06B
:1056A000FF038365F8E700BF10000240400002409E
:1056B0002800024058000240B8040240ABAAAAAA3F
:1056C000BC32010800FCFFFF0368294A294930B4B5
:1056D000294D2A4CAB4218BF93420CBF0122002235
:1056E0008B4208BF42F001022831A34208BF42F0BA
:1056F000010228348B4208BF42F001022831A34244
:1057000008BF42F001028B4208BF42F0010212B909
:105710001B4A934213D1DBB21A4C1B4A0121083BAE
:105720001A4DA4FB0343456602EB1312C3F30413A3
:10573000920001FA03F30266836630BC7047DAB266
:105740001349144C1944103AA829A4FB02234FEA28
:10575000131300D80833104A03F01F0501210F4C22
:105760001A44A9404466920081660266E5E700BFDC
:1057700008540258305402581C54025844540258D9
:1057800094540258CDCCCCCC0096001680580258C8
:10579000F0FBFDBFABAAAAAA00820010800802405D
:1057A00070B50446FFF71AFE002C00F0C68023688F
:1057B0000546954A934248D01832934245D030323C
:1057C00092498B4218BF934201F130010CBF012274
:1057D00000228B4208BF42F0010218318B4208BF01
:1057E00042F0010218318B4208BF42F00102183129
:1057F0008B4208BF42F0010201F556718B4208BF8F
:1058000042F0010218318B4208BF42F00102183108
:105810008B4208BF42F0010218318B4208BF42F0B0
:10582000010218318B4208BF42F0010218318B424D
:1058300008BF42F0010218318B4208BF42F001025A
:105840001AB9734A934240F0F5800222002184F88D
:10585000352084F834101A6822F001021A6005E03D
:10586000FFF7BCFD431B052B40D823681A68D107FE
:10587000F6D4D4E9022521692A43A0691D680A43A8
:1058800061690A43E16902430A4362492940256A82
:105890002A430A43616A04292FD01A605A6922F008
:1058A0000702114359612046FFF794FEE26D3F2342
:1058B00002F01F02934083602046FFF705FFA368B4
:1058C000802B3CD06368A06EDAB2013BD4E918515A
:1058D000072B2A60486026D90023C4E91B3363677D
:1058E00000200123606584F8353070BD2022032339
:1058F0000120626584F8353070BDD4E90B5129432D
:105900000A431A605969A26A21F00701114341F064
:105910000401002DC6D000284FD1012A6ED032F0EC
:105920000202BFD151E0501E072810D9626FD4E99E
:105930001B31002018604A60D2E7012070BD0023AF
:10594000A16ED4E91802636003605160C4E7216866
:10595000314B324DA94218BF994205F114050CBFD5
:1059600001230023A94208BF43F001031435A942D3
:1059700008BF43F001031435A94208BF43F00103F7
:105980001435A94208BF43F001031435A94208BFEA
:1059900043F001033BB9224B994204D0214B2249E9
:1059A00013449B0003E0214B214913449B00012237
:1059B0008240C4E91B316267BBE7B0F5005F0ED0DF
:1059C000022A05D9032A7FF46DAFEA017FF56AAF99
:1059D000012340221846626584F8353070BD032AE1
:1059E0003FF660AF01A050F822F000BFD159000887
:1059F000CB590008D1590008FD590008B5F1C07F06
:105A00007FF450AFE4E700BF1000024040000240C6
:105A1000B80402403F8010FE085402581C5402583B
:105A2000945402583F820010400902403F960016ED
:105A300040590258324A33483349834218BF93428F
:105A400000F128000CBF012200228B4208BF42F067
:105A500001022831834208BF42F0010228308B4204
:105A600008BF42F001022831834208BF42F0010220
:105A70008B4208BF42F0010212B9244A934238D146
:105A800002220021224D84F8341084F835201A684F
:105A90001540A268402A2AD0802A0CBF4FF48040CB
:105AA0000846266AD4E90312D20842EAD1026169A3
:105AB00042EAD102A16942EAD102E16942EAD10295
:105AC000144942EA161219442A4302431248A0FB21
:105AD000010120461A600B099B00E365FFF77AFD80
