:020000040800F2
:1000000000000220110A00080D0A00086D510008C6
:100010000D0A00080D0A00080D0A00080000000083
:100020000000000000000000000000000D0A0008B1
:100030000D0A0008000000000D0A0008F150000839
:100040000D0A00080D0A00080D0A00080D0A000834
:100050000D0A00080D0A00080D0A00080D0A000824
:100060000D0A00080D0A00080D0A0008F94C0008E6
:10007000054D0008553C0008114D00081D4D0008B5
:1000800099F20008294200080D0A00080D0A00082C
:100090000D0A00080D0A00080D0A00080D0A0008E4
:1000A0000D0A00080D0A00080D0A00080D0A0008D4
:1000B00059E6000865E6000871E600085D420008A0
:1000C0000D0A0008694200080D0A0008C9DE000890
:1000D000D5DE0008CDF00008FDF0000831F1000881
:1000E0000D0A00080D0A0008000000000D0A0008B3
:1000F0000D0A00080D0A00080D0A00080D0A000884
:100100000D0A00080D0A00087DE60008E1DE00087F
:1001100065F1000899F100080D0A00080D0A0008B1
:100120000D0A00080D0A000805DF000839DF000885
:10013000CDF200080D0A00080D0A00080D0A00089B
:1001400000000000000000000000000000000000AF
:100150000D0A00080D0A00080D0A0008CDF100087C
:10016000754200080D0A00080151000825510008D9
:100170000D0A0008495100080D0A00080D0A000880
:100180000D0A00080D0A000801F2000831F200080B
:10019000EDDE0008F9DE00080D0A00080D0A00086F
:1001A0000D0A00080D0A00080D0A00080D0A0008D3
:1001B000194A00080D0A00080D0A00080D0A000877
:1001C0000D0A00080D0A00080D0A00080D0A0008B3
:1001D0000D0A00080D0A00080D0A00080D0A0008A3
:1001E0000D0A00080D0A00080D0A00080D0A000893
:1001F0000D0A00080D0A00080D0A00080D0A000883
:100200000D0A00080D0A00080D0A00080D0A000872
:100210000D0A00080D0A00080D0A00080D0A000862
:100220000D0A00080D0A00080D0A00080000000071
:100230000D0A00080D0A0008000000000D0A000861
:100240000D0A00080D0A00080D0A00080D0A000832
:100250000D0A00080D0A00080D0A00080D0A000822
:100260000D0A00080D0A00080D0A00080D0A000812
:100270000D0A00080D0A000865F2000800000000E1
:100280000D0A00080D0A00080D0A00080000000011
:08029000000000000D0A000847
:1002A00010B5054C237833B9044B13B10448AFF3B0
:1002B00000800123237010BDE8030024000000002B
:1002C000084D010808B5034B1BB103490348AFF3C0
:1002D000008008BD00000000EC030024084D010868
:1002E00001F0FF01102A2BDB10F0070F08D010F8E7
:1002F000013B013A8B422DD010F0070F42B3F6D1EB
:10030000F0B441EA012141EA014122F007047FF003
:1003100000070023F0E80256083C85EA010586EA5A
:10032000010685FA47F5A3FA87F586FA47F6A5FA96
:1003300087F68EB9EED1F0BC01F0FF0102F00702A2
:1003400032B110F8013B013A83EA010313B1F8D14D
:100350000020704701387047002D06BF354603382E
:10036000073815F0010F07D1013015F4807F02BF67
:10037000013015F4C03F0130F0BC0138704700BFB8
:10038000034613F8012B002AFBD1181A01387047D5
:1003900081F0004102E000BF83F0004330B54FEA36
:1003A00041044FEA430594EA050F08BF90EA020FA3
:1003B0001FBF54EA000C55EA020C7FEA645C7FEA36
:1003C000655C00F0E2804FEA5454D4EB5555B8BF59
:1003D0006D420CDD2C4480EA020281EA030382EACA
:1003E000000083EA010180EA020281EA0303362D5C
:1003F00088BF30BD11F0004F4FEA01314FF4801C2F
:100400004CEA113102D0404261EB410113F0004F40
:100410004FEA03334CEA133302D0524263EB4303F7
:1004200094EA050F00F0A780A4F10104D5F1200E95
:100430000DDB02FA0EFC22FA05F2801841F10001F0
:1004400003FA0EF2801843FA05F359410EE0A5F1C4
:1004500020050EF1200E012A03FA0EFC28BF4CF0F5
:10046000020C43FA05F3C01851EBE37101F00045AB
:1004700007D54FF0000EDCF1000C7EEB00006EEBB8
:100480000101B1F5801F1BD3B1F5001F0CD3490842
:100490005FEA30004FEA3C0C04F101044FEA445299
:1004A00012F5800F80F09A80BCF1004F08BF5FEA20
:1004B000500C50F1000041EB045141EA050130BD00
:1004C0005FEA4C0C404141EB0101013C28BFB1F512
:1004D000801FE9D291F0000F04BF01460020B1FA5D
:1004E00081F308BF2033A3F10B03B3F120020CDA30
:1004F0000C3208DD02F1140CC2F10C0201FA0CF00E
:1005000021FA02F10CE002F11402D8BFC2F1200C72
:1005100001FA02F120FA0CFCDCBF41EA0C01904028
:10052000E41AA2BF01EB0451294330BD6FEA040471
:100530001F3C1CDA0C340EDC04F11404C4F120025C
:1005400020FA04F001FA02F340EA030021FA04F36E
:1005500045EA030130BDC4F10C04C4F1200220FAC5
:1005600002F001FA04F340EA0300294630BD21FA03
:1005700004F0294630BD94F0000F83F4801306BFC9
:1005800081F480110134013D4EE77FEA645C18BFBD
:100590007FEA655C29D094EA050F08BF90EA020F54
:1005A00005D054EA000C04BF1946104630BD91EA4C
:1005B000030F1EBF0021002030BD5FEA545C05D14F
:1005C0004000494128BF41F0004130BD14F580048E
:1005D0003CBF01F5801130BD01F0004545F0FE4102
:1005E00041F470014FF0000030BD7FEA645C1ABF37
:1005F000194610467FEA655C1CBF0B46024650EA6E
:10060000013406BF52EA033591EA030F41F4002199
:1006100030BD00BF90F0000F04BF0021704730B51F
:100620004FF4806404F132044FF000054FF00001F4
:1006300050E700BF90F0000F04BF0021704730B5B5
:100640004FF4806404F1320410F0004548BF40428A
:100650004FF000013EE700BF42004FEAE2014FEADF
:1006600031014FEA02701FBF12F07F4393F07F4FBA
:1006700081F06051704732F07F4208BF704793F0BD
:100680007F4F04BF41F40021704730B54FF46074D0
:1006900001F0004521F000411CE700BF50EA0102D3
:1006A00008BF704730B54FF000050AE050EA01027C
:1006B00008BF704730B511F0004502D5404261EBEC
:1006C00041014FF4806404F132045FEA915C3FF42D
:1006D000D8AE4FF003025FEADC0C18BF03325FEACA
:1006E000DC0C18BF033202EBDC02C2F1200300FA7B
:1006F00003FC20FA02F001FA03FE40EA0E0021FAA0
:1007000002F11444BDE600BF53B94AB9002908BF3D
:1007100000281CBF4FF0FF314FF0FF3000F074B9DC
:10072000ADF1080C6DE904CE00F006F8DDF804E048
:10073000DDE9022304B070472DE9F047089D044627
:100740008E46002B4DD18A42944669D9B2FA82F284
:1007500052B101FA02F3C2F1200120FA01F10CFAC0
:1007600002FC41EA030E94404FEA1C48210CBEFBF8
:10077000F8F61FFA8CF708FB16E341EA034306FB81
:1007800007F199420AD91CEB030306F1FF3080F010
:100790001F81994240F21C81023E63445B1AA4B25D
:1007A000B3FBF8F008FB103344EA034400FB07F7FF
:1007B000A7420AD91CEB040400F1FF3380F00A8140
:1007C000A74240F207816444023840EA0640E41B35
:1007D00000261DB1D4400023C5E900433146BDE8E1
:1007E000F0878B4209D9002D00F0EF800026C5E983
:1007F000000130463146BDE8F087B3FA83F6002E9B
:100800004AD18B4202D3824200F2F980841A61EB12
:10081000030301209E46002DE0D0C5E9004EDDE730
:1008200002B9FFDEB2FA82F2002A40F09280A1EB18
:100830000C014FEA1C471FFA8CFE0126200CB1FB6D
:10084000F7F307FB131140EA01410EFB03F0884266
:1008500008D91CEB010103F1FF3802D2884200F2F3
:10086000CB804346091AA4B2B1FBF7F007FB101185
:1008700044EA01440EFB00FEA64508D91CEB040423
:1008800000F1FF3102D2A64500F2BB800846A4EB7E
:100890000E0440EA03409CE7C6F12007B34022FA69
:1008A00007FC4CEA030C20FA07F401FA06F31C4398
:1008B000F9404FEA1C4900FA06F3B1FBF9F8200CA5
:1008C0001FFA8CFE09FB181140EA014108FB0EF0EB
:1008D000884202FA06F20BD91CEB010108F1FF3A3B
:1008E00080F08880884240F28580A8F10208614447
:1008F000091AA4B2B1FBF9F009FB101144EA014155
:1009000000FB0EFE8E4508D91CEB010100F1FF34FF
:100910006CD28E456AD90238614440EA0840A0FB97
:100920000294A1EB0E01A142C846A64656D353D06D
:100930005DB1B3EB080261EB0E0101FA07F722FA91
:1009400006F3F1401F43C5E9007100263146BDE8BA
:10095000F087C2F12003D8400CFA02FC21FA03F31D
:10096000914001434FEA1C471FFA8CFEB3FBF7F09E
:1009700007FB10360B0C43EA064300FB0EF69E42C3
:1009800004FA02F408D91CEB030300F1FF382FD25C
:100990009E422DD9023863449B1B89B2B3FBF7F604
:1009A00007FB163341EA034106FB0EF38B4208D9DD
:1009B0001CEB010106F1FF3816D28B4214D9023E1E
:1009C0006144C91A46EA004638E72E46284605E73C
:1009D0000646E3E61846F8E64B45A9D2B9EB02080D
:1009E00064EB0C0E0138A3E74646EAE7204694E79D
:1009F0004046D1E7D0467BE7023B614432E73046D0
:100A000009E76444023842E7704700BFFEE700BFD1
:100A10000B480C4A904203D0121A0B4912F054FAB8
:100A20000A480B4A904203D0121A002112F074FABD
:100A300004F0C6FD12F004FA00F0E4FDFEE700BF8A
:100A400000000024E8030024384D0108E8030024D6
:100A5000983B0024704700BF704700BF704700BF3D
:100A6000704700BF704700BFF0B500F1080783B0C2
:100A7000076029B3044608460E46FFF781FC0F289D
:100A8000054601900DD8012808D133782372019BC7
:100A9000002122686360D15403B0F0BD0028F6D075
:100AA00008E0002201A9204611F008FF019B07463B
:100AB0002060A3602A463146384612F005FAE6E780
:100AC000014811F061FE00BFC44301082DE9F04365
:100AD00087B0044698460F460E9D00F110019146DE
:100AE0000095C368426804A811F0A0FE9DF810307C
:100AF000B3B92668C8F8289056F8273006EB870265
:100B0000002B49D01B68C8F8003056F82730C3F8CE
:100B10000080E36840460133E36007B0BDE8F0833E
:100B2000059F012F5FD0B7F1005F62D2BA00104677
:100B3000039211F015FE039A0021064612F0ECF91B
:100B400004F1180CA2680020A06082B1154612685A
:100B5000A96AB1FBF7F307FB131156F821307BB3F9
:100B60001B682B6056F821301D60002AEED1D4E9B5
:100B70000001604502D0890011F0BBFDB9FBF7F11F
:100B8000C4E9006707FB1197C8F8289056F827308A
:100B900006EB8702002BB5D1A368C8F80030C4F873
:100BA0000880D8F800303BB19B6A6168B3FBF1F074
:100BB00001FB103346F8238004F108031360A8E713
:100BC000A3682B60234643F8085F46F821302B6862
:100BD0002BB146F820500846002AB7D1C7E708468F
:100BE000002AB3D1C3E72646002346F8183FB4468F
:100BF000A8E711F0C6FD00BFF8B5D0E900560746DA
:100C0000B5420FD005F1080454F8080C844204F1F1
:100C1000180403D0A968013111F06BFD1835AE42FC
:100C2000F2D13E6826B1B9683046891B11F061FDEA
:100C30003846F8BD70B585680646BDB12C462D68AE
:100C4000E36918461BB1616AC91A11F052FD606868
:100C500004F10C03984203D0E168013111F049FD21
:100C60002C21204611F045FD002DE7D172680021AE
:100C70003068920012F050F9306806F11803002233
:100C800071689842C6E9022202D0890011F031FD54
:100C9000304670BD2DE9F0410C4684B00021054678
:100CA0002046D4E90032012A93F8008028BF0122AF
:100CB00011F0A8FE2346676853F8082B7E1C9A4261
:100CC00014BFA3680F239E421ED802F8078000229B
:100CD000236866609A5505F1080366682B602468EE
:100CE000F44200D05CB30F2E039617D8012E08D122
:100CF00022782A72002228466E609A5504B0BDE818
:100D0000F081002EF6D012E0002301223946204661
:100D100000921A4611F03AFE2268D6E7002203A993
:100D2000284611F0CBFD039A03462860AA6032469C
:100D30001846214612F0C8F8039E2B68DAE70148EE
:100D400011F022FDC44301082DE9F04FCDB0074654
:100D5000012312A806A90CAA0DF11009C9F8300048
:100D60004420C9F800104321A9F8380018A8A9F8B0
:100D7000081046F24421C9F8480046F24520ADF873
:100D800030100221ADF860001EA8C9F8182000221A
:100D9000C9F860004520C9F81C100DF1280AA9F80F
:100DA000680024A8C9F84C10C9F87800462089F8D2
:100DB0002220A9F880002AA889F85220C9F89000BA
:100DC00046F24720C9F89410ADF8A80030A889F879
:100DD0009A20C9F8A8004720C9F8C410A9F8B000A3
:100DE00036A889F8CA20C9F8C00046F24120C9F8DF
:100DF0000430ADF8D8003CA8C9F83430C9F86430E4
:100E0000C9F87C30C9F8AC30C9E93603C9F80C31EF
:100E10004223C9F8F41048A9A9F8103141234FF42E
:100E2000907089F8FA20A9F8E03042ABC9F80811AF
:100E3000C9F8F03046F24223ADF8083111F090FCC9
:100E4000804600F1180400F59C7B0BE01B7804F849
:100E5000103C44F8145C183400230AF1180A5C456D
:100E6000435529D0A4F11000A4F11802264644F8F5
:100E7000180C5AE90635EB4202D0002B00F09280A4
:100E80000F2D039504D8012DE0D0002DE1D00BE00B
:100E9000104603A90022019311F010FD039A019B53
:100EA00044F8180C44F8102C2A46194612F00CF895
:100EB000039D54F8180CCCE74CAC183C234653F86F
:100EC000080B984203D0A168013111F012FC4C4587
:100ED000F3D1374BD3E90041364B0C1B9C4264D80D
:100EE0000023C7E90033BB60002C57D0204611F027
:100EF00037FC044403463860BC6003F10800183333
:100F000000229C4203F8102C43E90602F5D1DFF8D9
:100F1000B4A07B60DAF8003033B3A6EB0809264BA7
:100F20000024DFF8A4B04FEAE909254603FB09F9DC
:100F30003B6804EB4400B5FBF9F109FB115103EBED
:100F4000C00001EB410108EBC10111F0F9FCDBF835
:100F50000020DAF80030125D0134572A0CBF02225B
:100F60000122A3421544E3D846450ED008F10804F7
:100F7000454654F8080CA04203D0A968013111F08D
:100F8000B8FB18351834AE42F3D140464FF4907197
:100F900011F0AFFB38464DB0BDE8F08F23463C6002
:100FA000BC60B4E7054811F0EFFB054811F0EFFB1A
:100FB00038040024F8FFFF7FABAAAAAAC4430108A3
:100FC000F04301080400002404040024274B284AAD
:100FD0002DE9F041D3E90035ED1A954243D80023BD
:100FE0000646C0E900338360BDB3284611F0B8FB64
:100FF00042193060B26000F10803183000248242C8
:1010000000F8104C40E90634F5D1726015B3194F61
:10101000254612F05DF8DFF864800246306801353D
:1010200020441834D7E900135B1ADB1008FB03F3E4
:10103000B2FBF3FC0CFB132202EB420201EBC201F8
:1010400011F07EFCD6E900239B1ADB1008FB03F3AA
:101050009D42DEDB3046BDE8F0810560C0E9015508
:101060003046BDE8F081044811F091FB44040024AF
:10107000F8FFFF7F38040024F0430108ABAAAAAAB6
:101080002DE9F04FA84C8FB0204602F051FBA74845
:1010900002F04EFBA64802F04BFB237913B1A37A72
:1010A0007F2B29D0A14B1A791AB19B7A7F2B00F0A4
:1010B000F4809F4B1A7912B19B7A7F2B22D09D48E6
:1010C000002102F06BFD9FED9C7A9FED9C6AF2EE91
:1010D000006AF0EE477A9A4B9A48E0EE067AFBFEF9
:1010E000677A87EE870AC3ED007A20EE260A0FB0F2
:1010F000BDE8F04F11F0E8BA934A137883F001038A
:101100001370CFE7914D04AED5E900740296E74223
:1011100002D0002F00F099810F2C089400F2688112
:10112000012C40F05D813B7832460DF120090DF134
:1011300008088DF8103000230394484641461355A3
:101140000AACFFF7A7FD089B2868A34200F0638163
:101150007F4A2B609042099B6B6000F06A810A9A7B
:10116000AB68AA60002800F0668108900A9300230B
:10117000099303700898A04203D00A99013111F035
:10118000B8FA0298B04203D00499013111F0B1FAD3
:10119000704A4846704F1368072B14BF0133002371
:1011A0001360FFF7D1FD089A0023D7F808A0089331
:1011B000D7E900863A60099AB04509937A600A9A9D
:1011C0000A93BA600ED008F10804454654F8080C9A
:1011D000844203D0A968013111F08BFA1835183414
:1011E000AE42F3D1B8F1000F04D0AAEB080140469B
:1011F00011F07FFADDE90856B5420ED005F108047A
:1012000054F8080C844203D0A968013111F071FA36
:1012100018351834AE42F3D1089E26B10A993046EB
:10122000891B11F066FAD7E9006BBBEB060A00F0E8
:10123000D4804A4B9A4500F20B81504611F090FA47
:101240000190D7E9006B019BB3459A4400F09E8062
:1012500003F118040BE03A7804F8102C1836002239
:1012600044F8145C18345E45425500F09180A4F1B6
:101270001000A4F11802A04644F8180CD6E9007535
:10128000EF4202D0002F00F0E0800F2D08956BD8C0
:10129000012DE0D0002DE1D070E00024304B08A8F3
:1012A0001C60FFF793FE2F4B089AD3F80880089430
:1012B000D3E900761A60099AB74209945A600A9AEB
:1012C0000A949A600ED007F108043D4654F8080CC1
:1012D000A04203D0A968013111F00BFA1835183477
:1012E000AE42F3D127B1A8EB0701384611F001FA5D
:1012F000DDE90856B5420ED005F1080454F8080C93
:10130000A04203D0A968013111F0F3F9183518345F
:10131000AE42F3D1089E002E3FF4CBAE0A99304680
:10132000891B11F0E6F9C4E650040024EC04002403
:10133000FC04002494040024000070420000664372
:10134000080000247C050024600400240404002418
:101350000C040024B804002438040024F8FFFF7FA4
:10136000640400244404002410464946002211F07D
:10137000A5FA089A44F8180C44F8102C2A46394665
:1013800011F0A2FD089D54F8180C67E7DDF8048001
:10139000334B019A1F685E681A60B742C3F8048035
:1013A000D3F80880C3F808A00ED007F108043D4622
:1013B00054F8080CA04203D0A968013111F099F942
:1013C00018351834AE42F3D1002F3FF478AEA8EBB5
:1013D0000701384611F08DF971E6CDF804A032E727
:1013E000002C37D132460DF120090DF10808A2E694
:1013F0000DF120090DF1080800224946404611F080
:101400005DFA089B029004932246394611F05CFD78
:10141000089C029A8FE6099A32B1012A0FD0214620
:1014200011F052FD099A286800236A6083540898D5
:101430009DE60A9BAB6008940AAC204697E69DF8AF
:1014400028300370099A2868EEE7064811F09CF9E5
:1014500011F097F930460DF120090DF10808D3E796
:1014600044040024C443010838B30138F8B50C46DD
:101470000026124D47082DED028B1148083410F05C
:101480002DFE1048B0EE408A10F028FE0B4885ED86
:10149000020A11F0E1F8094885ED018A85ED080A94
:1014A00010F0F8FEB74204ED020A06F1010604ED61
:1014B000010AE2D1BDEC028BF8BD7047BC040024E8
:1014C000440500240C05002408B5064800F02AFF56
:1014D0000021044800F0CAFF04210248BDE808408A
:1014E00000F040BF7C04002410B5064C204610F0EC
:1014F000DDFD054B0549064AA3616361A160E26019
:1015000010BD00BF0C0500240000C8430AD7233CCF
:10151000CDCC4C3D10B5064C204610F0C7FD4FF029
:101520007E5304490022E360A160A361626110BDA3
:10153000440500240AD7233C10B51C20204C2DED77
:10154000028BB0EE408A86B000F0EEFEDFED1D7A31
:1015500003461D4888EE270AADF8083002998DED44
:10156000010A02F0CBF81B2000F0DEFE03469DEDE1
:10157000010AADF80C300399144802F0BFF81920A5
:1015800000F0D2FE03469DED010AADF8103004993B
:101590000F4802F0B3F8152000F0C6FE03462046BF
:1015A000ADF81430059902F0F1F804230122214628
:1015B000084806B0BDEC028BBDE8104002F0F4B85C
:1015C000680400240000404250040024EC0400247D
:1015D000FC04002494040024074BF0EE400A9FED25
:1015E000077AF1EE007AD3ED006A054886EE870AA5
:1015F00020EE270A11F03CB80800002400007042D9
:101600007C05002410B52DED028BFFF75DFF22480D
:1016100000F0A4FEF7EE008AB0EE408A1F4C20498D
:101620004FF07C5300229FED1F0AC8EE887A2046B7
:1016300021616360E360E26184ED058A84ED020A62
:10164000C4ED067A11F008F8F0EE407A40F201128B
:101650000123B0EE480AA285C4ED087A2370C4EDD8
:10166000018AFFF741FFB0EE480AFFF753FFB0EEE3
:10167000480AFFF761FFB0EE480AFFF7ADFF002010
:1016800011F0B8FD11F0F6FC074802F071FA0749B5
:10169000014800F05FFEFEE77C040024BC04002447
:1016A000DB0F49400000C84294040024BD1B000821
:1016B000F0B583B0002302AC04E9060004461148EB
:1016C000B0EBC20FA360C4E9003318D3D6007EB1DB
:1016D00030460F4611F044F8054639463246354447
:1016E0002060A56011F0F0FB2046656003B0F0BDFE
:1016F000354620462660A660656003B0F0BD02480E
:1017000011F045F8F8FFFF7FF04301082DE9F041A3
:10171000044600F1080782B008462760884616464E
:10172000FEF72EFE0F28054601902FD8012828D15C
:1017300098F800302372002365607B55D6E90025B8
:10174000C4E90633AD1A23621ED01A4B9D422ED82F
:10175000284611F005F803461D44C4E90633256206
:10176000D6E900108142A0EB010504D018462A46B4
:1017700011F0B8FB03462B442046E36102B0BDE8FC
:10178000F0810028D7D00AE02B46E5E7002201A926
:10179000204611F093F8019B07462060A3602A467B
:1017A0003846414611F090FB019D2768C3E710F0D1
:1017B000E8FF00BFF8FFFF7F2DE9F041044600F18C
:1017C000080782B00846276088461646FEF7D8FD0F
:1017D0000F28054601902FD8012828D198F800300D
:1017E0002372002365607B55D6E90025C4E90633E2
:1017F000AD1A23621ED01A4B9D422ED8284610F0F7
:10180000AFFF03461D44C4E906332562D6E9001044
:101810008142A0EB010504D018462A4611F062FB74
:1018200003462B442046E36102B0BDE8F081002866
:10183000D7D00AE02B46E5E7002201A9204611F0A7
:101840003DF8019B07462060A3602A463846414682
:1018500011F03AFB019D2768C3E710F092FF00BF2B
:10186000F8FFFF7F2DE9F047D1E90024002382B083
:10187000A41A0D4680468360C0E9003349D0284B46
:101880009C424BD8204610F06BFF82465444C8E976
:1018900000AAC8F80840D5E90069B14533D00AF17B
:1018A00018040AE03B7804F8103C1836002344F88A
:1018B000145C18344E45435525D0A4F110007568CA
:1018C000A4F11803A24644F8180C3768EF4200D080
:1018D0000FB30F2D019504D8012DE3D0002DE4D0D6
:1018E00009E01846002201A910F0E8FF019B44F826
:1018F000180C44F8103C2A46394611F0E5FA019DCF
:1019000054F8180CD1E74046C8F804A002B0BDE86E
:10191000F087A246BAE7034810F036FF10F031FF17
:10192000F8FFFF7FC443010810B50446006818B1F2
:10193000A168091A10F0DDFE204610BD2DE9F04720
:101940009946036853F8216006B335680746884610
:101950009246AC6A0BE02C682E462546CCB1A46AB0
:101960007B68B4FBF3FC03FB1C4CE04515D14C45F4
:10197000F1D1DAF80420AB689A42ECD132B169684F
:10198000DAF8000011F090FA0028E4D13046BDE802
:10199000F08726463046BDE8F08700263046BDE891
:1019A000F08700BF2DE9F0430C46074685B02D4A6D
:1019B0004968206810F0A0FE7B6805462246B0FB0F
:1019C000F3F803FB1808034638464146FFF7B6FF15
:1019D00028B1006818B11C3005B0BDE8F0832C2098
:1019E00010F0BEFE002203460646D4E9009443F8F8
:1019F0000C2B19EB040F436002D0B9F1000F2DD06E
:101A00000F2C039419D8012C14D199F800203273AB
:101A10002A460025B46041461D5501243846334608
:101A200000947562C6E90755FFF750F81C3005B001
:101A3000BDE8F083002CEBD008E0002203A9301DA4
:101A400010F03CFF039A03467060F260224618468D
:101A5000494611F039FA039C7368D9E7024810F03F
:101A600093FE00BF07690FC7C44301082DE9F04189
:101A7000394D88B0394A2B6804AE126803EB430332
:101A8000029602EBC30152F833704C68E74201D072
:101A9000002F5AD00F2C019446D8012C32D13A781D
:101AA00033460DF108088DF81020002203944146BA
:101AB0002B481A552B68072B29D0FFF773FF0368B3
:101AC000284A93ED0A7BB7EEC77B82ED067A82ED5A
:101AD000057A01212B68244882F834100B44234AEC
:101AE00080F834101268029893FBF2F1B04202FBC6
:101AF00011332B6003D00499013110F0FAFD08B0C6
:101B0000BDE8F08124BB33460DF10808CDE7FFF7AF
:101B100049FF0368134A93ED0C7BB7EEC77B82ED58
:101B2000067A82ED057AD4E70DF10808002201A9B2
:101B3000404610F0C3FE019B0290049322463946B2
:101B400011F0C2F9DDE90143AFE7094810F01CFECE
:101B500030460DF10808F1E7640400244404002431
:101B60001C0400240C050024440500240400002467
:101B7000C44301080F4B10B51C787CB968B1431EF3
:101B800001F108025B0802EBC30208310023914215
:101B900041F8083C41F8043CF7D110BDFFF764FC64
:101BA000054810F077FD0028F7D0BDE81040FFF79A
:101BB0005DBF00BF600400247C05002400B583B035
:101BC00001910092FFF75CFADDE9000103B05DF8D6
:101BD00004EBFFF7CFBF00BF2DE9F04F9246521A3A
:101BE0000F466149921000F118050026814602FB5C
:101BF00001F187B00560994238BF19464FF07E5316
:101C000003610123C0E902664360C0E90566103044
:101C100010F0C0FDD9F80430834213D201280446E5
:101C200000F09980B0F1005F80F09B808200104648
:101C3000039210F095FD039A3146054611F06CF9B8
:101C4000C9E9005457456BD007F1240505E0036846
:101C5000BBB124372435BA4562D0444A55E909015D
:101C600010F04AFDD9F8041006463A464846334675
:101C7000B6FBF1F801FB18684146FFF75FFE00284C
:101C8000E5D12C2010F06CFD55F824BC55F8203C13
:101C9000044600221BEB030F40F80C2B606002D0BF
:101CA000BBF1000F5AD00F2B059343D8012B3ED127
:101CB0009BF8002022730022A360C254626255E99F
:101CC0000310C4E90722421A2ED0294B9A4248D861
:101CD0001046039210F044FD55F80C1C034655F8CD
:101CE000080C039AA0EB010B1A4481426262C4E91A
:101CF000073304D018465A4611F0F4F803464FF063
:101D0000010E9B4424372346CDF800E0324641467D
:101D10004846C4F820B02435FEF7D8FEBA459CD119
:101D2000484607B0BDE8F08F93461346DCE7002B2A
:101D3000C1D009E0002205A9201D039310F0BEFDCB
:101D4000059A039B6060E2601A46594611F0BCF8A0
:101D5000059B6068AFE7C9F8186071E7054810F0A7
:101D600013FD10F00EFD00BF398EE33807690FC771
:101D7000F8FFFF7FC44301082DE9F04FC2484FF040
:101D80000009ADF22C6DC14AC1490924C0F8009088
:101D90000DF58668C0F814900DF58F67C0F8209097
:101DA000FAAD10F0A1FCB94ABA490826BA480DF5B7
:101DB000367A10F099FCB54AB849B94810F094FC4D
:101DC000B24AB649B74810F08FFCB04AB649B74896
:101DD00010F08AFCAD4AB449B54810F085FCAB4A16
:101DE000B149B44810F080FCA84AB349B34810F098
:101DF0007BFCB349B348FEF737FEA44AB249B14869
:101E000010F072FC4822B149404611F05DF830AA4A
:101E100016AB53A8CDE9308406CAFFF749FC53AA94
:101E2000AB493846FFF772FC4822AA49284611F010
:101E30004BF82EAA15AB50A8CDE92E54E8AD06CA32
:101E4000FFF736FC50AAA4490DF29C40FFF7B4FC02
:101E50004822A249284611F037F82CAA14AB4DA805
:101E6000CDE92C54D6AD06CAFFF722FC4DAA9C49F9
:101E70000DF59860FFF74AFC48229A49284611F070
:101E800023F82AAA13AB4AA8CDE92A5406CAFFF7B9
:101E90000FFC4AAA94490DF2E440FFF78DFC934CE5
:101EA0000DF5467E0DF1A00C75460FCC0FC50FCC7D
:101EB0000FC50FCC0FC594E80F0085E80F00CDE9E2
:101EC00028E612AB47A855469CE80600FFF7F0FB52
:101ED00047AA87490DF5A160FFF718FC04F1100C23
:101EE0000DF1980EBCE80F000FC5BCE80F000FC540
:101EF000BCE80F000FC59CE80F0085E80F0011AB90
:101F000044A8CDE926A69EE80600FFF7D1FB44AA27
:101F100078490DF22C50FFF7F9FB0DF5267A04F104
:101F2000500C0DF1900E5546BCE80F000FC5BCE8F3
:101F30000F000FC5BCE80F000FC59CE80F0085E837
:101F40000F0010AB41A8CDE924A69EE80600FFF7DC
:101F5000AFFB41AA68490DF5AA60FFF72DFC0DF50E
:101F6000167A04F1900C0DF1880E5546BCE80F006E
:101F70000FC5BCE80F000FC5BCE80F000FC59CE8FB
:101F80000F0085E80F000FAB3EA8CDE922A69EE822
:101F90000600FFF78DFB3EAA58490DF27450FFF77B
:101FA000B5FB0DF5067A04F1D00C0DF1800E554607
:101FB000BCE80F000FC5BCE80F000FC5BCE80F0060
:101FC0000FC59CE80F0085E80F000EAB3BA8CDE9DC
:101FD00020A69EE80600FFF76BFB3BAA48490DF5DB
:101FE000B360FFF7E9FB0DF5EC7A04F5887C0DF1A1
:101FF000780E5546BCE80F000FC5BCE80F000FC5B2
:10200000BCE80F000FC59CE80F0085E80F000DAB82
:1020100038A8CDE91EA69EE80600FFF749FB38AABE
:1020200038490DF2BC50FFF771FB0DF5CC7A04F581
:10203000A87C0DF1700E554604F5C874BCE80F007D
:102040000FC5BCE80F000FC5BCE80F000FC59CE82A
:102050000F0085E80F000CAB35A8CDE91CA69EE863
:102060000600FFF725FB35AA27490DF5BC60FFF7F1
:10207000A3FB0DF5AC7E0DF1680C75460FCC0FC5BA
:102080000FCC0FC50FCC41E07C04002400000024DD
:10209000590A0008610A0008BC0400245D0A00080F
:1020A000440500240C050024550A000850040024AF
:1020B000EC040024FC040024650A00087C050024CC
:1020C00024440108040400242F2A01087040010858
:1020D0002C440108B84001083044010800410108BF
:1020E000344401084841010838440108904101087E
:1020F0003C440108404401084444010848440108A4
:102100004C44010850440108544401080FC594E8A8
:102110000F0085E80F00CDE91AE60BAB32A80DF5EC
:10212000C5649CE80600FFF7C3FA32AA6E490DF2B7
:102130000460FFF7EBFA08AA4B463946059217AA46
:102140006A48049209AA039218AA029219AA019253
:102150000AAA00920DF5C562FFF73EFD243C04F18A
:1021600018063046FFF7E0FB204610F0C9FBBC42E2
:10217000F4D132A8DFF89CB1FFF7D6FB35A8FFF702
:10218000D3FB38A8FFF7D0FB3BA8FFF7CDFB3EA859
:10219000FFF7CAFB41A8FFF7C7FB44A8FFF7C4FB42
:1021A00047A8FFF7C1FB4AA8FFF7BEFB4DA8FFF702
:1021B000BBFB50A8FFF7B8FB53A8FFF7B5FB4C4A91
:1021C0004C494A4810F090FA4B493846FEF74CFC0F
:1021D0004A493046FEF748FC49490DF59560FEF73F
:1021E00043FC0DF598604749FEF73EFC46490DF566
:1021F0009B60FEF739FC45490DF59E60FEF734FC07
:1022000039490DF5A160FEF72FFC3B490DF5A4609F
:10221000FEF72AFC0023C020CBF80830CBE90033BE
:1022200010F09EFA00F1C00300F1180400F1D80983
:10223000CBF80000CBF808300AE01B7804F8103C1B
:1022400044F8145C183400231836A14543552BD0AC
:10225000A4F11000A4F11802A24644F8180C56E9A3
:102260000635EB4201D0002B3BD00F2DC8F80050B3
:1022700004D8012DE1D0002DE2D00CE010464146FB
:102280000022079310F01AFBD8F80020079B44F8AF
:10229000180C44F8102C2A46194610F015FED8F8F0
:1022A000005054F8180CCBE70DF5A464CBF804A04B
:1022B000204610F025FBA742A4F11804F8D10C4ADF
:1022C0001349144810F010FA12491348FFF7CAFADC
:1022D000074A0F4910480DF22C6DBDE8F04F10F081
:1022E00003BA0E4810F050FA584401081C040024A8
:1022F00000000024350C00082C4401083444010877
:102300003C44010840440108484401085044010885
:10231000F90B00083804002444040024C4430108D5
:10232000FFF72ABD704700BF202882B009D8084BAC
:1023300003EB400213F81030507843EA002002B05B
:10234000704701230C2043EA002002B0704700BF11
:102350005C440108143001F0A9B900BF143001F049
:10236000A1B900BF38B500F1140504462DED028B6C
:10237000284601F089F9284601F094F92846B0EE84
:10238000408A01F07DF9D0ED007AF8EE677A88EEA8
:10239000277ABDEC028B84ED0E7A38BDF0B50323AD
:1023A00099B000270125129306462C4B09A81595D4
:1023B000CDE90E7340F20453ADF84030284BCDE91F
:1023C0001357099301F0F2FC09A801F0CBFD002896
:1023D00036D1244B04AF04460090CDF84230102390
:1023E000394604958DF820301F4BCDE91650CDE9C4
:1023F00006506846059301F043FF0823009A01A99F
:1024000009A8ADF804508DF806400994029503938D
:1024100000F0E4F800230EA938463024049302F0BB
:10242000F7FC03224FF07E5309A906F114000B9329
:102430000C93CDE90942049A01F0EAF819B0F0BD15
:1024400040F60132074B169704AFADF824200998E7
:10245000CDF84230179500F081F8DBE70402040460
:1024600003030001040604030704010B2DE9F043F4
:1024700004462DED028B83B0002948D0012140F2A3
:10248000011200230091ADF804208DF80630304A87
:102490000126304B271D304904F12908626040F2C3
:1024A0000272A36040F60663E16004F1250926820A
:1024B000A4F8252084F82760A4F8293084F82B603C
:1024C00003F034F86946054648B304F130008DF84E
:1024D000066002F089FF072D34D104F1140520466F
:1024E000FFF75CFF284601F0DDF82846B0EE408A91
:1024F00001F0C6F8D0ED007AF8EE677A88EE277A18
:1025000084ED0E7A03B0BDEC028BBDE8F08340F29F
:10251000011300918DF80610ADF80430B7E704F10F
:10252000300002F061FF3946204602F0F1F84846DB
:1025300001F03CFC404601F039FC04F1120000F0CF
:1025400077F9CAE73946204602F0E2F8C5E700BF4E
:102550000508050905070506050A060610B584B035
:1025600003460124ADF8040003A8ADF80C30ADF823
:102570000E4001F01BFC214603A801F001FD20469E
:1025800002F066FE002103A801F0FAFC204602F0EA
:102590005FFE214603A801F0F3FC04B010BD00BFAC
:1025A00010B5C2F3002384B00C46017C8DF80D20D9
:1025B00043EA4402FA2402238DF80C2003AA009473
:1025C00001F0F4FE18B10124204604B010BD044609
:1025D0000A2002F03DFE204604B010BD034670B54F
:1025E00043F8042B044684B007C983E80700A379A5
:1025F00083B91A210B461E22FA2523742046ADF812
:102600000C20022303AA009501F0D0FE28B101207E
:1026100004B070BD1B210B46EDE70A2002F018FE46
:102620004FF4B85200950223ADF80C20204603AABF
:10263000217C01F0BBFE0028E9D10A2002F008FE4F
:1026400041F2027200950223ADF80C20204603AA45
:10265000217C01F0ABFE0028D9D10A2002F0F8FD60
:10266000042200950223ADF80C20204603AA217C09
:1026700001F09CFE0028CAD10A2002F0E9FD0622E2
:1026800000950223ADF80C20204603AA217C01F01E
:102690008DFE0028BBD10A2002F0DAFD41F20822AB
:1026A00000950223ADF80C20204603AA217C01F0FE
:1026B0007DFE0028ABD10A20064602F0C9FD009538
:1026C000022303AA217C2046ADF80C6001F06EFEC7
:1026D00000289CD1304602F0BBFD009522790C23E6
:1026E0002046002A8DF80C3003AA4FF0020314BFD5
:1026F000622142218DF80D10217C01F057FE002847
:1027000085D1304602F0A4FD2279D4E902310B4391
:10271000DBB20AB943F0400362790AB143F0200307
:102720000E22FA258DF80D302046009502238DF8F3
:102730000C2003AA217C01F039FE00287FF467AF4A
:102740000A2002F085FD102200950223ADF80C202E
:10275000204603AA217C01F029FE00287FF457AF10
:102760000A2002F075FD122100950223ADF80C102D
:1027700003AA217C204601F019FE00287FF447AF10
:102780000A2002F065FD012209212046FFF708FF1B
:10279000003818BF01203BE7F0B5102387B0234C69
:1027A000012200250126002702A920460195CDE936
:1027B00002234FF48052CDE9046709F06FFC6420D6
:1027C00003F05AF902A94FF480522046CDE904677C
:1027D00002261027CDE9026709F060FC03221023CE
:1027E00002A92046CDE9022300230422CDE90423D7
:1027F0004FF4805209F052FC40F23223042202A925
:10280000019310232046CDE90223019A012305926A
:102810004FF48052049309F041FC40F60601204633
:1028200009F05CFC284607B0F0BD00BF9405002409
:102830001C4B00221C494FF0400C30B5054689B0B6
:102840000220596007219A601A620124DA620A2282
:102850004FF4006EDC6006922022CDE900010420D6
:102860000821CDE9020103201021CDE9040108204F
:102870006946C3E904024FF4C072181DC3E906C2D9
:102880004FF48052C3E909E209F0DEFB38B928466B
:10289000FFF782FF003818BF012009B030BD204685
:1028A00009B030BD9005002440410052614A00212A
:1028B000D0B513688EB00A91002B40F0B9805E4B02
:1028C00001214FF683700C2411600221D3F8D4202B
:1028D0000026032742F48052C3F8D420D3F8D42032
:1028E00002F480520092009AD3F8E02042F01002E5
:1028F000C3F8E020D3F8E02002F010020192019A20
:10290000D3F8E02042F04002C3F8E020D3F8E02002
:1029100002F040020292029AD3F8E02042F008024C
:10292000C3F8E020D3F8E02002F008020392039AF3
:10293000D3F8E02042F48072C3F8E020D3F8E0201E
:1029400002F480720492049AD3F8E02042F08002EC
:10295000C3F8E020D3F8E02002F080020592059A47
:10296000D3F8E02042F02002C3F8E020D3F8E020C2
:1029700002F020020692069AD3F8E02042F0040208
:10298000C3F8E020D3F8E0300C9403F0040307937D
:102990000323079A0B93CDE9080108A9274804F0FF
:1029A000F1FE48F23712022308A925480C94CDE91C
:1029B0000823CDE90A6704F0E5FE4CF20372022316
:1029C00008A920480C94CDE90823CDE90A6704F052
:1029D000D9FE40F2FF62022308A91B480C94CDE9FE
:1029E0000823CDE90A6704F0CDFE4FF60C720223EE
:1029F00008A916480C94CDE90823CDE90A6704F02C
:102A0000C1FE4FF63F02022308A911480C94CDE9FC
:102A10000823CDE90A6704F0B5FE2022022308A9A5
:102A20000A480C94CDE90A67CDE9082304F0AAFE10
:102A30000EB0D0BD8C05002400440258001002588E
:102A400000180258000C025800200258001C0258BE
:102A5000001402582DE9F04FDFF8108406460D46A9
:102A6000144608F118002DED028B89B000AF02F07A
:102A7000C7FAD8F8183073B3D8F81C30D8F80490D7
:102A8000002B43690BBF4FF0080A4FF0100A4FF0BC
:102A9000020B4FF0040BB9F1000F2AD0A200EA4656
:102AA000012B02F1070222F00702ADEB020D68468E
:102AB000ADEB020D694600F03F81022B00F0D6809D
:102AC000002B6FD02246C847D5462437BD46BDEC03
:102AD000028BBDE8F08FD8F81C30002BF5D0D8F869
:102AE00004904FF0080A4FF0020B4369B9F1000F50
:102AF000D4D1FB61D8F80030BB61002BE5D0D548BC
:102B000002F0F0FA6B46BBF1020F786108EE103A62
:102B1000FB6900F083816A465146A2EBC4029546E8
:102B20006200EA46B2FBFBF2AAEBC40085460AEB60
:102B30008200EE46F861ADEB010DF8690EEB820CF8
:102B4000C7F810C0EC46ADEB010D00EB8201CCF8EC
:102B50000400CCF8081001EB82013869E946CCF892
:102B60000C1000EB8201CCF800A001EB8202C9E955
:102B700000E0C9E90212012B00F06483022B00F08F
:102B80006C82002B00F08081620849466046BB6978
:102B9000984718EE103A24379D46BD46BDEC028B8F
:102BA000BDE8F08F002C8DD01A46D8ED0C6A9FED51
:102BB000B27A8446331D36F922E00CF1080C07EE98
:102BC00090EA33F922E00232F8EEE77A944267EEB7
:102BD000877A67EEA67A4CED027A07EE90EAF8EE75
:102BE000E77A67EE877A67EEA67A4CED017AE2D84B
:102BF000F9612246C847984ED8ED0D6A0020F96960
:102C00002B1D9FED9E7A9FED9E6ADFED9E5A22E07E
:102C1000F4EEC67AF1EE10FAC0F2C88447F6FE72FE
:102C2000D1ED017A45F8202066EEA77AF4EEC77A56
:102C3000F1EE10FA40F2F080F4EEC67AF1EE10FAFE
:102C4000C0F2D58447F6FE7243F8202002300831E6
:102C500084427FF639AFD1ED007A66EEA77AF4EEC2
:102C6000C77AF1EE10FAD3D83246D9E7002C3FF4F8
:102C700029AFD8ED0C6A84469FED787A0022331D87
:102C80008E4656F822100CF1080C07EE901A53F8F5
:102C900022100232F8EEE77A944267EE877A67EE06
:102CA000A67A4CED027A07EE901AF8EEE77A67EE14
:102CB000877A67EEA67A4CED017AE2D87146224611
:102CC000C7F81CE0C847664ED8ED0D6A0020F969C8
:102CD0002B1D9FED6A7A9FED6A6ADFF894C120E0B0
:102CE000F4EEC67AF1EE10FAC0F279843246D1EDF4
:102CF000017A45F8202066EEA77AF4EEC77AF1EE65
:102D000010FA40F28780F4EEC67AF1EE10FAC0F2C3
:102D10005E84324643F820200230083184427FF638
:102D2000D3AED1ED007A66EEA77AF4EEC77AF1EE73
:102D300010FAD5D86246DAE7002C3FF4C3AED8EDDE
:102D40000C6A86469FED477A4FF0000C331D56F80B
:102D50002C200EF1080E82F40002A2F5000207EE0C
:102D6000902A53F82C200CF1020CF8EEE77A82F44A
:102D700000026445A2F5000267EE877A67EEA67A44
:102D80004EED027A07EE902AF8EEE77A67EE877A40
:102D900067EEA67A4EED017AD9D8F9612246C84786
:102DA000314ED8ED0D6A0020F9692B1D9FED337A65
:102DB0009FED336ADFF8BCC01FE0F4EEC67AF1EE97
:102DC00010FAC0F2FC833246D1ED017A45F820209A
:102DD00066EEA77AF4EEC77AF1EE10FA18D9F4EE9F
:102DE000C67AF1EE10FAC0F2DA83324643F82020B8
:102DF0000230083184427FF667AED1ED007A66EE8C
:102E0000A77AF4EEC77AF1EE10FAD6D86246DBE77D
:102E10006246EBE762467DE7324615E7A100D646FB
:102E20006208073121F00701ADEB010DEA46ADEB79
:102E3000010D6946ADEB0E0D0AEB8200EC46ADEBE1
:102E40000E0D01EB8202F861E946CCE900A0C9E968
:102E5000001290E6E40500240280FFFF000000302D
:102E60000082FF7F0000003482FF7F00C80500243D
:102E7000007E00807E0080FF0000003804FF7FBFDE
:102E800004FF7F3F00FEFF46002C00F0C982BBF12B
:102E9000020FD8F8242000F0FA827969C7F804906C
:102EA00002EB810E5FED0C5A8A00DCF808100EF17F
:102EB00004007A611A46DCF80C303B61331DD7F808
:102EC00010903D61FD69C7E902CB8C46834636F917
:102ED0002210D8ED0C7A06EE101A33F9221006EE05
:102EE000901A3EF92210B8EEC66A07EE101AF8EEF4
:102EF000E66A3BF92210B8EEC77A26EE256A66EE3E
:102F0000A56A27EE257A26EE276A66EEA76A27EEDF
:102F1000277A07EE901A51080232F8EEE77A0AEBA8
:102F20008100944280ED006A05EB810067EEA57A8E
:102F3000C0ED006A0CEB810009EB810180ED007AA5
:102F400098ED0C7A67EE877AC1ED007ABFD8D7F892
:102F500004903D69D7E902CB60466208BB694946E7
:102F60009847D8F82C307A69D8ED0D6A1A441FEDCD
:102F70003D7A1FED3D6A2B1D904602F1040A5FED7C
:102F80003F5A0022A84ED9E900EC51E0F4EEC67A8F
:102F9000F1EE10FAC0F2C78247F6FE7045F8220043
:102FA0000CEB0100D0ED007A66EEA77AF4EEC77A5A
:102FB000F1EE10FA4BD9F4EEC67AF1EE10FAC0F247
:102FC000BA8247F6FE70BBF1020F43F822002BD005
:102FD000D9F808000844D0ED007A66EEA77AF4EE3E
:102FE000C77AF1EE10FA36D9F4EEC67AF1EE10FA9D
:102FF000C0F2CD8247F6FE7048F82200D9F80C00E6
:103000000144D1ED007A66EEA77AF4EEC77AF1EECC
:1030100010FA1ED9F4EEC67AF1EE10FAC0F2AF82C1
:1030200047F6FE714AF82210023294427FF6B1ADA3
:1030300051080EEB81008900D0ED007A66EEA77A88
:10304000F4EEC77AF1EE10FAA0D83046A6E7304683
:10305000B9E73146E6E73046CEE7002C00F0E081E4
:10306000BBF1020FD8F8243000F0E1817A69DCF876
:10307000081003EB820EC7F804909300DFED6B5A43
:103080000EF1040000227B61DCF80C303B61331D43
:10309000D7F810903D61FD69C7E902CB8C468346A5
:1030A00056F82210D8ED0C7A07EE101A53F82210B9
:1030B000B8EEC76A07EE101A5EF82210F8EEC76A7B
:1030C00007EE101A26EE256A5BF82210B8EEC77AD2
:1030D00066EEA56A26EE276A27EE257A66EEA76ACF
:1030E00027EE277A07EE901A51080232F8EEE77AB7
:1030F0000AEB8100944280ED006A05EB810067EEE7
:10310000A57AC0ED006A0CEB810009EB810180ED2E
:10311000007A98ED0C7A67EE877AC1ED007ABFD815
:10312000D7F804903D69D7E902CB60466208BB69D5
:1031300049469847D8F82C307A69D8ED0D6A1A4478
:103140009FED3E7A9FED3E6A131D9246DFF8E4C084
:103150000022FB612B1D364ED9E9008E4EE0F4EEC5
:10316000C67AF1EE10FAC0F2FC81304645F8220032
:103170000EEB0100D0ED007A66EEA77AF4EEC77A86
:10318000F1EE10FA49D9F4EEC67AF1EE10FAC0F277
:10319000EF813046BBF1020F43F822002AD0D9F864
:1031A00008000844D0ED007A66EEA77AF4EEC77AFC
:1031B000F1EE10FA35D9F4EEC67AF1EE10FAC0F25B
:1031C000C98130464AF82200D9F80C000144D1EDFB
:1031D000007A66EEA77AF4EEC77AF1EE10FA1ED9FD
:1031E000F4EEC67AF1EE10FAC0F2AD813146F8691C
:1031F00040F82210023294427FF6CBAC510808EB23
:1032000081008900D0ED007A66EEA77AF4EEC77AE5
:10321000F1EE10FAA3D86046A8E76046BAE7614627
:10322000E5E76046CEE700BF0280FFFF0000003008
:103230000082FF7F007E00800000003404FF7FBF1B
:1032400004FF7F3F002C00F0EB807A690021D8F862
:103250002430C7F8109003EB820ED7F81C9093002F
:10326000FD610EF104021FED0C6A7B61331D1546F2
:1032700056F821204808D8ED0C6ABBF1020F82F401
:103280000002A2F5000207EE902A53F8212082F4F2
:103290000002B8EEE77AA2F5000227EE067A07EE02
:1032A000902A0AEB8002F8EEE77A27EE267A67EE9C
:1032B000867A82ED007A09EB80024FEA800067EEA1
:1032C000A67AC2ED007A27D05EF8212082F40002AF
:1032D000A2F5000207EE902A55F8212082F40002A0
:1032E000B8EEE77AA2F5000227EE067A07EE902AFA
:1032F000DCF80820F8EEE77A024427EE267A67EE3B
:10330000867A82ED007A98ED0C7ADCF80C2067EE74
:10331000877A0244C2ED007A02318C42A8D8D7F8ED
:10332000109060466208BB694946FD699847D8F825
:103330002C307A69D8ED0D6A1A441FED407A1FEDE2
:10334000406A131D9246DFF8C4C20022FB612B1DA8
:10335000AB4ED9E9008E4EE0F4EEC67AF1EE10FAEB
:10336000C0F2C580304645F822000EEB0100D0EDDA
:10337000007A66EEA77AF4EEC77AF1EE10FA49D930
:10338000F4EEC67AF1EE10FAC0F2BF803046BBF11F
:10339000020F43F822002AD0D9F808000844D0EDE3
:1033A000007A66EEA77AF4EEC77AF1EE10FA35D914
:1033B000F4EEC67AF1EE10FAC0F2AE8030464AF86A
:1033C0002200D9F80C000144D1ED007A66EEA77A0C
:1033D000F4EEC77AF1EE10FA1ED9F4EEC67AF1EEE9
:1033E00010FAC0F28B803146F86940F822100232A0
:1033F00094427FF6CEAB510808EB81008900D0EDF6
:10340000007A66EEA77AF4EEC77AF1EE10FAA3D846
:103410006046A8E76046BAE76146E5E76046CEE762
:10342000224649466046BB699847FFF7B2BBC7F8DA
:1034300010B0002298ED0C6A331DDFED726AD7F8E8
:103440001CB0786956F8221007EE901A53F8221033
:10345000B8EEE77A07EE901A51080232F8EEE77AF2
:1034600027EE267A0AEB810E94420BEB810167EE80
:10347000A67A27EE067A67EE867A8EED007AC1ED9F
:10348000007ADFD88300D7F810B07B614DE61A468A
:10349000C7F810B098ED0C6A331DDFED5B6AD7F802
:1034A0001CB0786936F9221007EE101A33F9221091
:1034B00007EE901AB8EEC77A51080232F8EEE77AB2
:1034C00027EE267A0AEB810E94420BEB810167EE20
:1034D000A67A27EE067A67EE867A8EED007AC1ED3F
:1034E000007ADFD88300D7F810B07B6134E5F0EEC6
:1034F000675AFEEEE45A15EE900A34E7F0EE675A8A
:10350000FEEEE45A15EE901A6EE7F0EE675AFEEE04
:10351000E45A15EE900A3AE7F0EE675AFEEEE45AE6
:1035200015EE900A4BE767EEA57AFDEEE77A17EE07
:10353000900A00B232E567EEA57AFDEEE77A17EE63
:10354000900A00B23FE5F0EE675AFEEEE05A15EE43
:10355000901A4CE6F0EE675AFEEEE05A15EE900A2D
:1035600030E6F0EE675AFEEEE05A15EE900AFDE501
:10357000F0EE675AFEEEE05A15EE900A0AE667EEA4
:10358000A57AFDEEE77A17EE901A09B24AE567EEE2
:10359000A57AFDEEE77A17EE900A00B22CE5F0EE80
:1035A000675AFEEEE45A15EE902A1FE467EEA57AFC
:1035B000FDEEE77A17EE902A12B2FFF731BBF0EE7C
:1035C000675AFEEEE45A15EE902AFFF7FDBBF0EEC7
:1035D000675AFEEEE05A15EE902AFFF79BBBF0EE1D
:1035E000675AFEEEE05A15EE902AFFF780BB67EEB1
:1035F000A57AFDEEE77A17EE902A12B2FFF724BB08
:1036000082FF7F0000000030000000387E0080FF55
:1036100030B5184C154685B0046004F1080EEC4630
:103620000FC98EE80F00D4ED047AF5EEC07A8CE86D
:103630000F00F1EE10FA1ADDB7EE006A94ED057A8C
:1036400027EE277AC6EE276A84ED0D7AC4ED0C6A60
:103650006DB1204640F8185F01F0D2FC06490369BD
:103660000020064A2162A262E36005B030BD01205D
:1036700005B030BDC8050024002000300000003037
:1036800000680830704700BFB1F5807F03680A46C4
:1036900028BF4FF48072B1F5807F9A6094BF0020FC
:1036A000012070470068183001F00ABD30B5046889
:1036B00083B008480D46A368A26A216A9B00009067
:1036C00004F1180001F09EFC0020C4E9000503B0DD
:1036D00030BD00BF552A000810B4074B4FF07E5193
:1036E00030240022032019619C60D8605DF8044BEF
:1036F0005961C3E906227047C805002470B5044625
:1037000082B0C1F30726CDB2ADF8041001F09EFDE2
:103710004FF480724FF001232060A01DA571A2809C
:10372000E671A36002B0BDE8704000F03FBB00BF8F
:1037300038B5044601F08AFD0022236822718342D5
:1037400010D00122A57AE37A954020602271A01D55
:103750006DB243B900F006FC40B22843C0B27F28E6
:10376000A0720AD038BD00F0FDFBB0FA80F040092D
:103770002843C0B27F28A072F4D101F067FD07EEA4
:10378000900AF8EE677AC4ED037A38BD82B04FF044
:10379000000C0323ADF80410BDF8042080F810C01D
:1037A0000280438002B070472DE9F04FBE4E0025E5
:1037B0008FB0BE4C037006F1400342600746019291
:1037C0008846202229463046C4F85831C4F854614E
:1037D000CDE90355CDE90555CDE90755CDE90955A5
:1037E000CDE90B550FF098FB2022294604F599707E
:1037F000C4F82151C4F82551C4F82951C4F82D51F9
:103800000FF08AFB019B84F8385284F820317A68E3
:10381000002A5FD02B464146B64604F5907599467E
:103820004FF0010A03EB0310D1F800B0D1F8048087
:103830000133D1F808C02218CE6844F800B0C2F8AD
:103840000480C2F808C0D660087C2EF8029B107471
:103850000A7C05F8012F002A69D07A68113184F8B2
:1038600038A29A42DED84FF4802291489DF8043065
:1038700008214FF000084FF00009C4F8743100230C
:10388000C4E957020122C4F8643184F87031C4E9F4
:103890005A2194F83812C4E9608981B3C4F88821A8
:1038A000002284F8713184F878313B78C4E96322CE
:1038B000A3B3012200200121013B84F89421C4E933
:1038C0006801082B2CD8DFE803F0ABB0B5BABFC451
:1038D000C9CFD6009DF804300121C4F86421C4F892
:1038E00074314FF4802384F87021714AC4E957235E
:1038F00008230022C4E95A130023C4E960230123EA
:10390000002284F87131002384F878310323C4F84D
:1039100088313B78C4E96322002BCAD184F8943102
:10392000644802F0E1FC034638B1FFBEFEE77A6866
:1039300011319A423FF676AF95E703A95D480393AC
:1039400002F030FE0546002868D1022240F2FF73E3
:10395000CDE9082300230422CDE90A2394F820317D
:10396000002B00F0D5804FF0060921E0022B00F07B
:103970008980012B40F0C4809AF80130012B00F0BF
:10398000C180002B4C4B18BF002306A94948CDE944
:10399000063902F0D5F8002840F0BF80013594F8D0
:1039A0002031EDB2AB4240F2B380444B53F8259046
:1039B0002FB207EB071704EB070A504600F0F6F9A1
:1039C00005EB051323441B7C042B7DDC022B00F349
:1039D000918000F08D806319002283F81021E35D4F
:1039E000002BC3D19AF80130062B00F08580072BFD
:1039F00000F08A80022B00F09680032B00F0958067
:103A0000002B00F09680012B00F09180042B00F039
:103A10009280052B2A4B18BF0023B6E7FFBEFEE7B6
:103A200003224023C4E966237AE707226023C4E91E
:103A3000662375E70F228023C4E9662370E71F22FF
:103A4000A023C4E966236BE73F22C023C4E96623B1
:103A500066E77F22E023C4E9662361E7FF224FF493
:103A60008073C4E966235BE740F2FF124FF4907362
:103A7000C4E9662354E740F2FF324FF4A073C4E96F
:103A800066234DE79AF80130042B37D0052B3DD043
:103A9000002B40D0012B42D0022B42D0032B094BEC
:103AA00018BF002371E700BF00400030000600246B
:103AB000002002405C0700240002B025A044010859
:103AC0000000B84F0020903603233E1D04EB05088C
:103AD0004FF0000B264488F8103130460BF1010BF3
:103AE00000F064F998F8103104365B45F5DC76E7B0
:103AF0000123EAE70223E8E7104B46E7104B44E7CF
:103B0000002342E70F4B40E70F4B3EE70F4B3CE7EC
:103B10000FB0BDE8F08F0E4B37E7FFBEFEE70D4B51
:103B200033E70D4B31E70D4B2FE70D4B2DE70D4BD9
:103B30002BE70D4B29E70D4B27E700BF0800900C42
:103B40001000C0102000F0148000501D00018021E2
:103B50000004002A0008302E001060320040C03AF5
:103B60000080F03E00005247000021430000844BDB
:103B700038B5094C40F2FF724FF0011104F5AE75F3
:103B8000284602F0BDFC94F82021D4F854112846B0
:103B9000BDE8384002F028BA00060024064B0F2981
:103BA000D3F8543198BF03EB41031B8800EE103A61
:103BB000BBEEC80A704700BF00060024214B026814
:103BC0009A4200D07047204A00232048D2F8D810EB
:103BD00030B51F4C41F0200183B0C4F8C00109206A
:103BE00004F5E075C4E971034FF48060C2F8D810A1
:103BF000D2F8D8204FF40061C4E9733094F8380249
:103C000002F02002C4F8D4114FF4005198420192FE
:103C10002846C4F8D811C4E97833019B14BF0023A7
:103C20004FF48073C4F8DC3102F0E2FE08B1FFBE4D
:103C3000FEE704F5AE73C4F8A851C4F8F83103B038
:103C400030BD00BF00200240004402584000024046
:103C500000060024014803F043BA00BFC007002457
:103C600002682DE9F84F4B4B9A4201D0BDE8F88F1E
:103C7000494D95F83832002BF8D095F82031002BBB
:103C800077D0002405F10C0905F5997605F59077B4
:103C9000A04613E003F0010117F811BCA9F10800D8
:103CA00000F06EF9BBF1010F25D895F820310134F1
:103CB00009F111090236A2B293422BD917F8012F4C
:103CC000002AF4D0D5F854310021327833F81400AA
:103CD000D5F8583103EB041323F81200338801336D
:103CE0009BB233805FFA83FA3A789A42D2D88A46F6
:103CF000A6F80080D0E7CAF34001A9F1040000F063
:103D00003FF9BBF1020FCAF38001CED0484600F064
:103D100037F9CAE7002395F838022049092298426A
:103D2000C5F8C8314FF48060C5F8C011C5F8C4218A
:103D30004FF400614FF40052C5F8CC3108BF4FF486
:103D40008073C5F8D821C5E9740100221448C5E97B
:103D50007732C5F8E42102F04BFE08B1FFBEFEE762
:103D600095F82021D5F854110E48BDE8F84F02F01F
:103D70003BB90A4909224FF48060C5F8C831C5E94A
:103D800070124FF400614FF40052C5E97330C5E979
:103D90007512DAE7002002400006002440000240CD
:103DA000C00700245C070024704700BF8378022B03
:103DB00030B504468FB037D0032B33D0012B31D030
:103DC00000230A93E378012B2AD0022B28D000236A
:103DD0000B93002320460C9301F02CFD0546204652
:103DE00001F030FD23780990082B13D8DFE803F0A9
:103DF0001F3245586B7E91A40500594BD3F8E02043
:103E000042F48072C3F8E020D3F8E03003F480730A
:103E10000893089B09A9284603F0B4FC0FB030BDF5
:103E20000B93D6E70A93CDE711230A93CAE74C4BCD
:103E300009A92846D3F8E02042F00102C3F8E020A7
:103E4000D3F8E03003F001030093009B03F09AFCE9
:103E50000FB030BD424B09A92846D3F8E02042F00C
:103E60000202C3F8E020D3F8E03003F0020301932C
:103E7000019B03F087FC0FB030BD394B09A92846E0
:103E8000D3F8E02042F00402C3F8E020D3F8E03099
:103E900003F004030293029B03F074FC0FB030BDE7
:103EA0002F4B09A92846D3F8E02042F00802C3F8B6
:103EB000E020D3F8E03003F008030393039B03F002
:103EC00061FC0FB030BD264B09A92846D3F8E0208D
:103ED00042F01002C3F8E020D3F8E03003F0100302
:103EE0000493049B03F04EFC0FB030BD1C4B09A99A
:103EF0002846D3F8E02042F02002C3F8E020D3F8AF
:103F0000E03003F020030593059B03F03BFC0FB06A
:103F100030BD134B09A92846D3F8E02042F04002F7
:103F2000C3F8E020D3F8E03003F040030693069B8B
:103F300003F028FC0FB030BD094B09A92846D3F87F
:103F4000E02042F08002C3F8E020D3F8E03003F034
:103F500080030793079B03F015FC0FB030BD00BF33
:103F60000044025838B5054601F064FC0446284672
:103F700001F068FC01462046BDE8384003F00ABE67
:103F800070B506460D4601F055FC0446304601F07A
:103F900059FC2A1E0146204618BF0122BDE8704088
:103FA00003F0FEBD0023122270B586B0CDE90223D6
:103FB00004930368032B01D804230593061D841D75
:103FC000304601F037FC0546304601F03BFC034625
:103FD00001A92846019303F0D5FB204601F02AFCF5
:103FE000034620461C4601F02DFC01A9034620464D
:103FF000019303F0C7FB06B070BD00BF634A0368BE
:10400000934210B58CB028D0614A934258D0614A8F
:10401000934200F09480604A934201D00CB010BDEE
:104020005E4C5F48D4F8E03043F00203C4F8E0305F
:10403000D4F8E03003F002030A930A9BFFF7B2FFC3
:10404000D4F8F43043F08003C4F8F430D4F8F430FA
:1040500003F080030B930B9BE0E7504C5148D4F8DE
:10406000E03043F00203C4F8E030D4F8E03003F06D
:1040700002030193019BFFF795FFD4F8E83000227B
:104080001F2043F400131146C4F8E830D4F8E83098
:1040900003F400130293029BD4F8D83043F00103D9
:1040A000C4F8D830D4F8D83003F001030393039B4D
:1040B00002F0ECFA1F200CB0BDE8104002F024BB67
:1040C000364C3948D4F8E03043F08003C4F8E0308F
:1040D000D4F8E03003F080030493049BD4F8E0307C
:1040E00043F00203C4F8E030D4F8E03003F00203F8
:1040F0000593059BFFF756FFD4F8E83000222120F6
:1041000043F480031146C4F8E830D4F8E83003F4EF
:1041100080030693069BD4F8D83043F00103C4F81B
:10412000D830D4F8D83003F001030793079B02F08E
:10413000ADFA21200CB0BDE8104002F0E5BA1B48F2
:10414000FFF730FF154B00224820D3F8E840114616
:1041500044F40004C3F8E840D3F8E84004F4000451
:104160000894089CD3F8D84044F00104C3F8D84020
:10417000D3F8D83003F001030993099B02F086FAC3
:1041800048200CB0BDE8104002F0BEBA0054004018
:1041900000580040005C0040001C005800440258D9
:1041A000C80A00244008002418090024F00900244B
:1041B0002DE9F0431A4B87B000254FF010099E46B9
:1041C000EC46184BFF22E04667461A700EF11806BF
:1041D0000EF13004CDE90055CDE90255ADF800905F
:1041E000BCE80F00CDE90455AEE80F009CE80300E1
:1041F0000095ADF800908EE80300B8E80F000FC6F8
:104200009CE803000095ADF8009086E803000FCF0E
:104210000FC49CE8030084E8030007B0BDE8F08306
:104220000C0000243C08002410B5EFF3108472B693
:10423000084B1A78120602D504B962B610BD1B7875
:10424000D82205485BB202FB0300143002F048FF9D
:10425000F2E700BF3C08002440080024014804F0B5
:1042600037BB00BFCC080024014804F031BB00BFBD
:10427000A4090024014804F02BBB00BF7C0A0024E1
:104280002DE9F0430F68D8243F4D85B007FB04F4B7
:10429000032F05EB0403036040DCCB680E46012BC3
:1042A0003CD84DD04FF0D808B646DFF8FC9008FB5C
:1042B0000758BEE80F00C446ACE80F00DEF8003037
:1042C0000DF1100ECCF80030D8F808C099E80F00B6
:1042D0000EE90F000EEB8703BCF1010F53F8103C01
:1042E000C8F88C3031D0BCF1020F42D0BCF1000FC5
:1042F00035D0317C8C34D823002201202C4403FBA0
:1043000007534900C3E92602C3F894102046C3E9C5
:104310002822C3E92A2204F0CDF818B1012005B003
:10432000BDE8F0830146204604F0DEFA0028F5D10E
:104330000146204604F002FB003818BF0120EEE7DA
:104340000B7C103B672BADD9E8E701F0EDF80F4B84
:1043500098420CBF0E4B0F4BC8F89030C9E701F0E4
:10436000E3F80A4B98420CBF0B4B0C4BC8F890304B
:10437000BFE701F0D9F8054B98420CBF084B094B39
:10438000C8F89030B5E700BF40080024000E2707AA
:104390002D0FB0303211D0205F4390608A62E03040
:1043A000200BA0101A098010904301082DE9F0415C
:1043B000D0F8008082B00D4617461E4608F18C04E6
:1043C000204604F08DFA2028FAD1D8F80C3073B9C1
:1043D0006D002046089C33463A46A9B2009404F08A
:1043E000BFF8003818BF012002B0BDE8F081089B7B
:1043F00032463946204604F087F9F2E7044B102292
:104400001A7483F8E82083F8C02183F89822704753
:104410004008002430B5002395B04FF48071062287
:1044200004460B9306921393CDE90C13CDE90E339A
:10443000CDE9113301F07AF807282BD004F11005EB
:1044400041F2883206A9284605F08AF828B10123EE
:10445000184684F85C3015B030BD0222022306A94C
:104460002846CDE9002310220123CDE902230022B2
:104470004FF48003CDE9042305224FF080730692A8
:104480006A460F9341F2883305F0D6F90028DED151
:1044900015B030BD0323012084F85C3015B030BD69
:1044A00070B50023A4B04FF080724FF480750446BD
:1044B000ADF806300D93CDE910320122CDE90E534F
:1044C000CDE91223CDE91433002943D0F02300F1C4
:1044D000100508AEADF80630C02341F288323146EF
:1044E0002846089305F03CF828B10123184684F8C3
:1044F0005C3024B070BD41F288320DF106012846CF
:1045000005F098F803460028EFD105224FF480719A
:104510001E93284616924FF080721B9321931F9290
:1045200002AA9FED1F7BCDE91C13CDE922338DED4F
:10453000027B9FED1D7B41F2883316A98DED047B34
:104540009FED1B7B8DED067B05F076F90028CCD125
:1045500024B070BD00F1100508AE612341F288322D
:1045600031462846089304F0FBFF0028BDD141F2F4
:1045700088320DF10601284605F0DAF80028B4D19A
:10458000BDF80630204623F0780343F04003ADF831
:104590000630FFF73FFF00289ED0A6E7AFF300806C
:1045A00000000000010000001000000001000000F9
:1045B00000000000000040002DE9F04F00234FF400
:1045C000807501264FF0807804462DED028BABB04C
:1045D0008DF8073013932193299314950E96CDF8F7
:1045E0005C80CDE91533CDE91863CDE91A33CDE907
:1045F0002253CDE92433CDE9273306231C9300F061
:1046000095FF072808D004F1100741F288321CA951
:10461000384604F0A5FF40B10123184684F85C3009
:104620002BB0BDEC028BBDE8F08F4FF0020A4FF0CB
:10463000020B4FF0050941F2883308AA1CA938463D
:10464000CDF89480CDF870909FED2D8BCDE908AB1F
:104650004FF0000A4FF4800B8DED0A8BCDE90CABC7
:1046600005F0EAF80028D7D141F2883238460EA981
:1046700004F076FF0028CFD1402341F288320DF1BB
:10468000070138468DF8073004F0D4FF0028C3D165
:1046900041F288330EA902AA3846CDF83890CDF8F9
:1046A0005C809FED197B8DED048BCDE906AB8DED24
:1046B000027B05F0C1F803460028ADD1CDF870901B
:1046C0004FF00109CDF894804FF00008219308AA1B
:1046D00029931CA938462295CDE92333CDE9273308
:1046E00041F288338DED0A8BCDE90CABCDE9088919
:1046F00005F0A2F8002893D0304684F85C608FE77C
:104700001000000001000000400000004000000018
:104710002DE9F043624CA3B00D46046000F006FFA3
:10472000072800F0A980286823466968AA6807C39B
:104730001E46AB8926F8043B3046257B677B04F098
:10474000F1FEE0B9574B012D4FF00108E061236104
:1047500014BF4FF480134FF40003C4E9058893FAA3
:10476000A3F3B3FA83F34FF48079013BC4F82490A8
:10477000C4E90B003046236204F068FE38B1012220
:10478000134684F85C20184623B0BDE8F083662306
:104790000B90139041F2883206A90693CDE90C9054
:1047A000CDE90E00CDE91100304604F0D9FE002815
:1047B000E5D1992341F2883206A93046069304F0E8
:1047C000CFFE0028DBD105231C9019906A46149374
:1047D0004FF08073219014A91D9341F288339FED0F
:1047E0002A7BCDE91A90CDE91F008DED007B9FED6E
:1047F000287B30468DED027B9FED277B8DED047B82
:1048000005F01AF80028BAD129462046FFF748FEDD
:104810000028B4D12046FFF7CFFE03460028AED1D2
:10482000002FB0D1189330460027002606AA14A9FD
:10483000CDF86890CDE91F33EB2314934FF4406318
:104840001B934FF4005317934FF440431C93A02342
:104850001693062319934FF0805321934FF0407322
:10486000CDE906671D9305F05FF8034600288AD05E
:10487000434684F85C8086E701230322184684F8C7
:104880005C2023B0BDE8F0830000000001000000C0
:1048900010000000010000000000000000004000C7
:1048A000A00B0024005000522DE9F04F8FB0414B77
:1048B0000024026800AF9A427C63C7E90944C7E953
:1048C0000B4403D03C37BD46BDE8F08F3A4B40F671
:1048D00009213A48EB46D3F8D42007F11C0607F12A
:1048E000220A4FF0020942F480424FF00308C3F855
:1048F000D420D3F8D42002F48042BA60BA68D3F846
:10490000E02042F04002C3F8E020D3F8E02002F0BB
:104910004002FA60FA68D3F8E02042F02002C3F8BF
:10492000E020D3F8E02002F020023A613A69D3F89F
:10493000E02042F01002C3F8E020D3F8E02002F0BB
:1049400010027A617A69D3F8E02042F00202C3F8DB
:10495000E020D3F8E030F86103F002033984BB6152
:10496000174B7B60BB697B6853F8040F7B6000F0DA
:1049700061FF7B680546186800F064FF16F8013B8C
:10498000786207F124012846C7F830807B63C7E9C5
:104990000A9402F0F7FE5645E5D100225C2011464C
:1049A00001F074FE5C2001F0AFFE3C37DD46BD46F1
:1049B000BDE8F08F00500052004402580A0A09096D
:1049C000FC0B0024114B02689A4200D07047104A39
:1049D00070B5D2F8D4300F4C23F4804304F118069C
:1049E000C2F8D43054F8040F00F024FF05462068C4
:1049F00000F028FF0146284603F004F8B442F1D144
:104A00005C20BDE8704001F08DBE00BF0050005238
:104A100000440258FC0B0024014805F011B800BF07
:104A2000B00B0024084B1A1D981D03F1080110B4A7
:104A30009C1C9A6603F10A02C3E91834C3E91B01FE
:104A40005DF8044B5A677047A00B002438B5036823
:104A500071B9026A00F1280500F5AC74012A0CBF97
:104A6000002140218BBB1D4B5722C0F858310DE06F
:104A7000426A00F1C00500F5E874012A0CBF00216C
:104A80004021EBB1164B5A22C0F8D031002320460A
:104A9000C4E901214FF480524FF480616362626186
:104AA0004FF48042C4E903314FF48073C4E9062314
:104AB0004FF40033236201F09BFF58B1FFBEFEE7C5
:104AC000084B5822C0F8D031E0E7074B5922C0F814
:104AD0005831DBE7C5E92044A56338BD100002402A
:104AE0007000024028000240580002402DE9F043C7
:104AF000821D05468BB0031D05F10A010830CDE982
:104B0000052305F10C02AB69CDE907010992002BE1
:104B10003DD0EB69B3FA83F84FEA5818012302221B
:104B200005AE0AAF4FF006090393CDE9012356F80D
:104B3000044B2B792278934216D02B68F3B1012BCA
:104B400002D1F2B10A230493204600F07BFE034613
:104B50002046009300F06EFE694602F013FEBE424E
:104B6000E5D10BB0BDE8F083697963789942E4D16F
:104B7000B8F1000FF3D02B68002BE0D1CDF81090E6
:104B8000E2E76378022B14BF0A230823DBE74FF028
:104B90000108C3E7534A0368934230B505468BB01A
:104BA00055D02032934252D04F4A934204D0203203
:104BB000934201D00BB030BD4C4C4D48D4F8E0309E
:104BC00043F00103C4F8E030D4F8E03003F001030F
:104BD0000593059BD4F8E03043F00803C4F8E030B7
:104BE000D4F8E03003F008030693069BD4F8E030D5
:104BF00043F04003C4F8E030D4F8E03003F0400361
:104C00000793079BD4F8F03043F40003C4F8F03066
:104C1000D4F8F03003F400030893089BFFF766FF15
:104C2000D4F8D830296843F001032F4A3048C4F83B
:104C3000D830891AD4F8D83018BF012103F0010305
:104C40000993099B0BB0BDE83040FFF7FFBE274C2E
:104C50002848D4F8E03043F00103C4F8E030D4F839
:104C6000E03003F001030093009BD4F8E03043F000
:104C70001003C4F8E030D4F8E03003F010030193DF
:104C8000019BD4F8E03043F04003C4F8E030D4F89E
:104C9000E03003F040030293029BD4F8F03043F479
:104CA0008003C4F8F030D4F8F03003F480030393A9
:104CB000039BFFF71BFFD4F8D830296843F00103AA
:104CC000084A0C48C4F8D830891AD4F8D83018BF2C
:104CD000012103F001030493049B0BB0BDE83040B5
:104CE000FFF7B4BE04580140045C01400044025880
:104CF000740E0024180C0024014802F0F1B900BF22
:104D0000700D0024014802F0EBB900BFE80D00244B
:104D1000014802F0E5B900BFCC0F0024014802F0C1
:104D2000DFB900BF441000241A4A0368934210B44C
:104D30000BD02032934208D0174A934216D020322B
:104D4000934213D05DF8044B7047144B0022D3F804
:104D50005442C3F85822002CF4D0D3F84802D3E9C7
:104D6000931223465DF8044B520818470B4B002260
:104D7000D3F8B044C3F8B424002CE3D0D3F8AC2467
:104D8000D3F8A814D3F8A404520823465DF8044BC2
:104D9000184700BF04580140045C0140180C00246F
:104DA000184A0368934210B40BD02032934208D0C3
:104DB000154A934217D02032934214D05DF8044B29
:104DC0007047124BD3E994245208C3F85822002CA0
:104DD000F4D0D3E99201234601EB820100EB82007B
:104DE0005DF8044B1847094BD3F8AC24D3F8B04412
:104DF0005208C3F8B424002CE0D0D3F8A814D3F898
:104E0000A404E8E704580140045C0140180C0024A5
:104E10002DE9F04F0C684FF41776754F87B004FBFF
:104E200006F6012C07EB060AC0F800A000F3A080EC
:104E30000D468E464FF00008D44669A3D3E90023FF
:104E400069A1D1E90001CDE9022306ABCAF850827D
:104E500003EB8403CDE9040153F810BC53F8083C7C
:104E6000CAE992880193BEE80F00ACE80F00BEE8E3
:104E70000F00ACE80F00019B9EE80300CAF828B0C1
:104E8000CAF8C0308CE803002B69042B0CD8DFE88B
:104E900003F0737D879103004FF41773554A03FBAA
:104EA00004739A64C3F8E020AA692B6A002A43D0ED
:104EB000002B4FF4177308BF022203FB047318BFC3
:104EC0000322DA6201221A63EA696B6A002A40D17E
:104ED000191E4FF4177318BF012103FB0473C3E9B4
:104EE00031126B69022B05D8434A12F80380434AFA
:104EF00052F823904FF4177306F1280042464946B2
:104F000003FB04740023384463646363E365C4F8FB
:104F1000DC30C4F8CC30C4F8F430C4E90F33C4E951
:104F20001533C4E93533C4E93B33022306F02AFEC6
:104F3000002849D0FFBEFEE7191E4FF4177318BFB3
:104F4000012103FB0473C3E90B12EA696B6A002AAF
:104F5000BED0002B4FF4177308BF022203FB04736B
:104F600018BF0322C3F8C4200122C3F8C820B8E741
:104F7000012007B0BDE8F08F4FF417734FF4FA52D9
:104F800003FB04739A64C3F8E0208DE74FF41773B2
:104F90004FF47A5203FB04739A64C3F8E02083E76A
:104FA0004FF417734FF4FA4203FB04739A64C3F887
:104FB000E02079E74FF417734BF6803203FB04735C
:104FC0009A64C3F8E0206FE706F1C000022342466E
:104FD0004946384406F0D6FD0028CAD0FFBEFEE799
:104FE00004580140045C014024580140245C014005
:104FF000180C002400770100E0440108E444010893
:105000000068704770B5046882B015460E46C4F853
:105010005032C4E99212069AC4F85422A269012AB5
:1050200026D0626A012A9AB211D0294604F1C00042
:10503000019206F063FE236A019A012B10D02946E3
:1050400004F1280006F05AFE002002B070BD04F101
:10505000C000019206F0E4FE236A019A012BEED112
:10506000314604F1280006F0DBFE002002B070BDDE
:10507000226A012A9AB211D0294604F1280001922D
:1050800006F03CFE636A019A012B10D0294604F118
:10509000C00006F033FE002002B070BD04F128000D
:1050A000019206F0BDFE636A019A012BEED13146F2
:1050B00004F1C00006F0B4FE002002B070BD00BFD5
:1050C00003681B69042B05D8044A02EB830393EDA4
:1050D000000A70479FED020A704700BFF0440108C4
:1050E00000803B470368D3F858027047704700BF01
:1050F00008B500F0AFFCBDE8084001F08FBB00BF71
:10510000064808B503680BB102F04EFD0448036879
:105110001BB1BDE8084003F03DBC08BDE01400240D
:10512000D8100024064808B503680BB102F03CFD16
:10513000044803681BB1BDE8084003F02BBC08BD60
:10514000E0140024D8100024064808B503680BB109
:1051500002F02AFD044803681BB1BDE8084003F0D3
:1051600019BC08BDE0140024D8100024364BDA6ABC
:10517000520062D59A6A9A6A9A6A9B6A180600D5A2
:1051800000BE314B9B6A990600D500BE2E4B9B6A30
:10519000DA0600D500BE2C4B9B6A1B0700D500BE6B
:1051A000294B9B6A980700D500BE274B9B6AD907FD
:1051B00000D500BE244B9B6A1A0400D500BE224BCA
:1051C0009B6A9B0400D500BE1F4B9B6AD80400D588
:1051D00000BE1D4B9B6A190500D500BE1A4B9B6A89
:1051E0005A0500D500BE184B9B6A9B0500D500BE32
:1051F000154B9B6AD80500D500BE134B9B6A9901DD
:1052000000D500BE104B9B6ADA0100D500BE0E4BE4
:105210009B6A1B0300D500BE0B4B9B6A580300D54D
:1052200000BE094B9B6A990300D500BE064B9B6AE2
:10523000DA0306D400BE00BEFEE7DB6A9B07FAD5A0
:10524000F8E700BEF6E700BF00ED00E000F00EBC9E
:1052500000F012BC2DE9F041CEB004464C220021F2
:105260000AA80DF059FE2022002102A80DF054FEDC
:10527000BC2200211EA80DF04FFE022003F0FEFF0D
:105280002368012B4FF0000354D0534A02250193A9
:10529000C820D16A514B21F00101D162D26A02F0DB
:1052A000010201929A6942F440429A619B6903F4B7
:1052B00040430193019B494A93699B04FCD54849AB
:1052C0000224002201268B6A04274FF0080823F0ED
:1052D000030323438B62052316900AA818934FF407
:1052E00080331096179419941597CDF86880CDE9FE
:1052F0001B222122CDE91344CDE90A2304F0A8FCA6
:1053000000B1FEE73F220323294602A8CDE902238C
:1053100000220823CDE9042340224023CDE90623BF
:1053200040234FF48062CDE9082304F0BFFF034619
:10533000B8B1FEE7294A04250093F0209169264B75
:1053400041F440419161926902F440420092DA6A6C
:1053500042F00102DA62DB6A03F001030093009B72
:10536000A9E720224FF4805125934FF440152B924A
:1053700080222D931EA83093269135914FF4807191
:10538000249234920C223394439140F227112092BC
:105390001022CDF884802A971F96CDE92E34CDE9CE
:1053A0003B334FF48033CDE92246319300244693BA
:1053B0000623CDE93E4527934FF48063094C2C9397
:1053C0001E94CDE9281205F0CDF900B1FEE703F0F7
:1053D0007BFF4EB0BDE8F081000400580048025841
:1053E000004402580F130F032DE9F0410D46044607
:1053F00084B0D1E9000184E8030000F0FBFAAE7943
:10540000002E37D06F460AF04FF8FEF7D1FE08F0B5
:105410001BFD09F0D3FD2B79002B54D16B799BB187
:10542000BFF34F8FBFF36F8F3C4B0022C3F8502266
:10543000BFF34F8FBFF36F8F5A6942F400325A6146
:10544000BFF34F8FBFF36F8F4FF0FF320023002465
:1054500000253946324802928DF80C30CDE90045DE
:1054600009F012F92E4809F077F908F01DF904B097
:10547000BDE8F08120466F46FFF7ECFE012401F005
:105480007BF94FF040534FF4807838460193254B19
:10549000ADF80040CDE9023801F08CF919224FF047
:1054A000404338468DF80F40ADF80D808DF801402F
:1054B0008DF80A608DF80820019301F07BF9042033
:1054C00001F068F99FE7154C0023C4F88430BFF35E
:1054D0004F8FD4F8803043F6E07EC3F3C906C3F3A0
:1054E0004E334FEA431C0CEA0E00334640EA837207
:1054F000013BC4F860225A1CF8D1ACF1200C1CF11D
:10550000200FF0D1BFF34F8F636943F480336361A1
:10551000BFF34F8FBFF36F8F80E700BF00ED00E058
:10552000D01000240E00010304F0F0BF1C4B9B6858
:1055300003F17842B2F5003F25D3B3F5803F20D385
:1055400003F16042B2F5003F1FD303F15C42B2F5B4
:10555000002F1CD303F17042B2F5902F19D303F141
:105560004842B2F5803F16D303F18042B2F1806F1A
:1055700013D303F1E043B3F5000F2CBF082007203D
:1055800070470120704700207047022070470320B9
:10559000704704207047052070470620704700BF01
:1055A00000ED00E003480023034A044903600DF0C6
:1055B0009BB800BFD010002400000024ED5000086C
:1055C00010B4204C0022204B83B0D4F888101F4820
:1055D00041F47001C4F8881019681D4C41F00101B4
:1055E00019601A61196808401A4918609A61DA61ED
:1055F0001A629A62DA621A635A639A63DA631A6405
:105600005A64186820F4802018601A66D3F8DC20E9
:1056100042F06042C3F8DC20D3F8DC300193019BF8
:1056200023681940B1F1005F03D20B4B0122C3F88C
:105630000821044B4FF000629A6003B05DF8044B00
:10564000704700BF00ED00E0004402587FEDF6EA2D
:105650000010005C0000FFFF0080005100F5717138
:10566000D0F8040407F008BCC1EBC10300EB8303CE
:10567000D0F80404D3F8082207F02CBCC1EBC10316
:1056800000EB8303D0F804049A6C07F061BC00BF00
:10569000D0F8040407F000BDC16810B5044619B184
:1056A000022900D0FEE70121D4F8040407F0DEFC53
:1056B000D4F80404BDE8104007F0B0BC10B50446AF
:1056C000D0F8040407F0D6FC2268D2F8003E43F07C
:1056D0000103C2F8003E236A23B1034A136943F071
:1056E0000603136110BD00BF00ED00E0D0F8040414
:1056F00007F0CABCD0F8040407F0DEBCD0F80404FC
:1057000007F0D8BCD0F8040407F0D8BCD0F80404E3
:1057100007F0D6BC9446D0F898021A4608B56346FE
:1057200003F09CFC032802D8024B185C08BD022041
:1057300008BD00BF14450108D0F8980208B503F071
:105740001BFD032802D8024B185C08BD022008BDCF
:1057500014450108D0F8980208B503F051FD03285C
:1057600002D8024B185C08BD022008BD1445010890
:105770000A06D0F8983206D4C1EBC10103EB8101CF
:1057800091F8FE01704701F07F01C1EBC10103EB0D
:10579000810191F83E007047D0F8980208B503F0F7
:1057A00047FC032802D8024B185C08BD022008BD44
:1057B00014450108D0F8980208B503F0B5FC032899
:1057C00002D8024B185C08BD022008BD1445010830
:1057D000D0F8980208B503F07FFC032802D8024BEA
:1057E000185C08BD022008BD14450108D0F8C002AD
:1057F00007F014BFD0F8C00207F028BFD0F8C002ED
:1058000007F030BF704700BFD0F8C00207F016BFE6
:10581000D0F8C00207F016BFD0F8D00308B502F0E8
:1058200083FD032802D8024B185C08BD022008BD86
:1058300018450108024B027853F82200704700BF58
:105840003C450108024B427833F81200704700BF14
:105850001C4501088CB00A2814D8DFE800F0152395
:10586000313F4D5B6977859306004D4BD3F8E020BF
:1058700042F48062C3F8E020D3F8E03003F48063A0
:105880000B930B9B0CB07047454BD3F8E02042F0D4
:105890000102C3F8E020D3F8E03003F001030193E4
:1058A000019BEFE73E4BD3F8E02042F00202C3F841
:1058B000E020D3F8E03003F002030293029BE1E71B
:1058C000374BD3F8E02042F00402C3F8E020D3F8CD
:1058D000E03003F004030393039BD3E7304BD3F88A
:1058E000E02042F00802C3F8E020D3F8E03003F0F3
:1058F00008030493049BC5E7294BD3F8E02042F04A
:105900001002C3F8E020D3F8E03003F01003059351
:10591000059BB7E7224BD3F8E02042F02002C3F802
:10592000E020D3F8E03003F020030693069BA9E7BC
:105930001B4BD3F8E02042F04002C3F8E020D3F83C
:10594000E03003F040030793079B9BE7144BD3F829
:10595000E02042F08002C3F8E020D3F8E03003F00A
:1059600080030893089B8DE70D4BD3F8E02042F4A9
:105970008072C3F8E020D3F8E03003F48073099319
:10598000099B7FE7064BD3F8E02042F40072C3F88E
:10599000E020D3F8E03003F400730A930A9B71E728
:1059A00000440258704700BF0F4B1B780BB9012011
:1059B000704710B504464FF47A700C4AB0FBF3F30D
:1059C0001068B0FBF3F000F0C1FE0F2C00D808B156
:1059D000012010BD002221464FF0FF3000F056FE9E
:1059E000034B00201C6010BD5C0000245400002408
:1059F0006000002438B50320124D00F035FE124C33
:105A000004F0B4FB114A12499369C3F30323CB5C3E
:105A100003F01F0320FA03F30E202B60926902F0BB
:105A20000F028A5C02F01F02D3402360FFF7BCFF25
:105A300010B10124204638BD0446FFF7B3FF2046CD
:105A400038BD00BF54000024580000240044025810
:105A500004450108034A044B11681B780B4413608A
:105A6000704700BFA41700245C000024014B186895
:105A7000704700BFA417002438B50446FFF7F6FFAF
:105A80000546631C02D0044B1B781C44FFF7EEFF55
:105A9000431BA342FAD338BD5C000024014B1868B5
:105AA000000C70470010005C704700BF806B08B5A9
:105AB000FFF7FAFF08BD00BF836B5A6D12F0500F5D
:105AC0005A6D10B51DD1196842F400725A650A6802
:105AD00012F0080FCA681BD012F4406F0DD1CA68CB
